:100000000C94D3080C94FD080C94FD080C94FD0886
:100010000C94FD080C94FD080C94FD080C94FD084C
:100020000C94FD080C94FD080C94FD080C94FD083C
:100030000C94F73C0C94FD080C94FD080C94FD08FE
:100040000C94FD080C9461460C947D290C94FD08D9
:100050000C94FD080C94ED3E0C94FD080C94FD08E6
:100060000C94FD080C941F3D0C94FD080C94FD08A5
:100070000C94FD080C94FD080C94FD080C94FD08EC
:100080000C942D3F0C94FD080C94FD080C94FD0875
:100090000C94FD086E616E00696E660000407A1077
:1000A000F35A00A0724E18090010A5D4E80000E829
:1000B0007648170000E40B54020000CA9A3B000087
:1000C00000E1F505000080969800000040420F0016
:1000D0000000A08601000000102700000000E803D7
:1000E000000000006400000000000A0000000000A2
:1000F0000100000000002C76D888DC674F0823DF61
:10010000C1DFAE59E1B1B796E5E3E453C63AE65133
:10011000997696E8E6C28426EB898C9B62ED407C5A
:100120006FFCEFBC9C9F40F2BAA56FA5F490055AF6
:100130002AF75C936B6CF9676DC11BFCE0E40D471B
:10014000FEF520E6B500D0ED902E0300943577053E
:100150000080841E080000204E0A000000C80C33F6
:100160003333330F986E12831141EF8D2114893B85
:10017000E65516CFFEE6DB18D1844B381BF77C1D05
:10018000901DA4BBE424203284725E228100C9F158
:1001900024ECA1E53D274645446173683A3A4F6E29
:1001A000427574746F6E496E7075744368616E67E2
:1001B0006531004645446173683A3A4F6E42757442
:1001C000746F6E496E7075744368616E6765300058
:1001D00078DAED9B4F6C1B5510C6776DC7711227EF
:1001E00036452A0895D4884A85436B2E8D1048A43D
:1001F000151245E260A31E805322CA25BD241212A7
:10020000077A48105724471C7229C8411C3870309F
:100210004220A844955448485CEA441CA8048A0D2E
:10022000EDA145544E9D3F4D1D7B1F6FD7B1F7BDCE
:10023000D99D2FC590A88E76244B717F5D7B776703
:10024000DE37B333CF86F1AFECF88863C6FF6621A3
:10025000F93A225FCFCBD79B46600F6E7121C42243
:10026000C3D2928D332C2759926115216A0C8AC80A
:10027000C3D619D62F59996147259B61D8B46429F3
:10028000869584A833282C0FDB64589F64AB0C1B25
:10029000926C9E6163929D66D8821016834C79D8C9
:1002A00016C37A25AB326C10386F14382F2F99C1D2
:1002B0003BEF3E837AE4616B0C1B906C09386F0A4C
:1002C000382FC93B6F1B386F03388F8BA38464B3FF
:1002D000C079CFF1CE6B00E7DD03CEBB0B9CF715E9
:1002E000705E96771E174786C0CEAB02E72D02E7F9
:1002F0008D77E6BC1A705E2722900022300944A058
:10030000C88B40088840AC4311C800112860E771D1
:10031000221005CEFB2F0ADE8108448008F47728DE
:100320000293208E8ABC08848008C4401C0D0111F1
:10033000C80011287426025120027120026920028F
:10034000391047BB38AF0A9CB78F2210D89E993915
:1003500071A562FD36E7E794A85C4EB6D5BDDE8C8C
:1003600056C48E59149A45D1B66DF2B12785627F75
:10037000EAEBB3A2322B45B39F624B649DC9EF39C0
:100380009F34471604C96876008B9A730A21E7BF29
:100390009D261F39EEAE39359AC754A998D475A356
:1003A000A8CA815D3CD4B54C65698BDC4D32317D8A
:1003B000C94FABC969505FF247D52B4CEBA96340DD
:1003C0005D9293FA3A8BAAD9A9A067385BFC6ACAF6
:1003D0003AB3482A69287FD789A00AE5F26AF4CEA1
:1003E000A7DC7A618BAEF3AC5BD66C52019F726F67
:1003F000E00655D459F75AD7699D33EF2AE11A958B
:10040000BF45F77656A91E2DB9627E97B232C31248
:100410002E4BD0ECAEFCC3C3C486FC5879F76B1FDF
:10042000F4634BEEBDAE32F77A80FA61D44D517D64
:10043000D47F63AE6F7BA9DF9598E8A1F1927363D7
:10044000294CE3ACA064604192BF12BB30E60B7A4A
:100450004ED2D60A59635A2CA3B539E45DD36555FB
:10046000358816CCFA6B889D9D9502A3A4AA469F59
:10047000D00A0C4DA6C6F45BE8685DD6BDBBAA8069
:100480003AEFEF3B976FE60529221C45ADB5B55510
:10049000BBBBC3BA26FFA1D5EC40CB8D97F81CA0FF
:1004A000E58E3A4D49BD7CCE91EA576AA2865FE55A
:1004B000119AB856B1FE9E4B06D93EB0036639FE7E
:1004C000B1D3163696957816068FB271C0F23C7B82
:1004D00042B0ECB10AC31E7DE393E6925EF57BF871
:1004E00015DDC098841DB080052C607BCA04B587DB
:1004F00094051658175B78E24A45DCF9F96D9F8739
:100500008E8BAD68BF9522E89992BB146A3A7C4DF8
:100510005B27F7D0929E076C1B49C12C657FBD936A
:10052000348F7DE4FCB9A133EBC3E69F2F0AFDC1F4
:1005300054B246567DF654DBF5C2CAEACF976585BC
:10054000CD908A51691FFC423B105C93BC4FF07DFB
:10055000FE1EC137DE43028F55595D02CC049F1940
:1005600002E71211FCA02906A63B7130C748838E12
:100570007D0E74EC2BFCB8C53E15AE639F0613C40C
:10058000223FC78809FEEB32FC1DB36F26374C7A39
:10059000127C6451B0738501C1CFA0ECAE9095641C
:1005A000C38F762ED49066664231700139C1CE0178
:1005B0009D6F5B07DFE67F583FF8B6027F92767843
:1005C000891BFE915EF236735A76C23E6CD95F216A
:1005D0002B7ECD1CB751C58CB49CA67C0DDCAD190F
:1005E000FEB2FD75A3D95CCAF20174835F1D8D1440
:1005F0002F0C578168505BED321658605D6DE6D95F
:100600002F5784B873D95BA0996FB5ABB0EB440B8F
:100610000F2F284BA1AEC117489D95020BFE261245
:10062000832C606B8435E6CE18E6B1663D69E9EC53
:10063000A79D13785CE89A28DF7CACABF3AAC23E96
:10064000D03B814A41213EA319DED5E09B1EA5ADDA
:1006500083E20615459D165A0DD0B2E40AC228D889
:10066000B51307BB2D32FCC60FB3C2174527F8FAE6
:100670002CCAA7ADC325266D3D72AA59978FF3E901
:10068000E56B3EF57CC3A6A5FAEB7CCA6ABC8BD2AF
:10069000D9AD144875B51448837E5E300FBDF2A9FC
:1006A000F769C6B56705A8858F08B0D5A440A752DD
:1006B0008A0D82CA358CE2B308B6D94C839D42A319
:1006C000BBEC9729EF63BF280DBE6F0C9C671E5CC7
:1006D0005F857744AFFA04B1E9BDF4F6BA153F7A05
:1006E000AACD0D37883EA745EA921260DFBACA53F9
:1006F000D24A62FBCDED9D7711B241A41994DF9FE0
:1007000093CFBE179BA3C5455E921B499E2DF35206
:100710005EA3A1AC8C45B538EA29A8883ECABCDAEC
:100720009E8BD67CA26FE4D2353BC59D0FB27D6017
:1007300007D09C9D610678F0075ACDB07ED085CE5B
:10074000F12C0ABAD7199E8540D77B18307901164B
:10075000C3EC0B5867987D01E3FE2CEA24537F9687
:100760007192B02F0B354B3D5F36DC14405F566CF9
:10077000F60BFC586BE7901F6B6DF8F161D15635A5
:10078000E0C332AD2AC2CB42ED5AD5CB86DB0AEEAE
:1007900065C576C3C3C394AD4F1E9677AB04CAA29A
:1007A0004A9D4759462983080BABC53661C36A0A7F
:1007B00022ACA8766C74A6EFDDD2595E2B7334168A
:1007C000D50B558D65F43A4E63A442A76C996756D4
:1007D0000A1CC7362FBA853DF80350C0BA9C0516CF
:1007E00058571992AC6E6281181D5CF6C38AAC1022
:1007F0007EFFE20C8ADDEB2910D7A465A5C7D116D0
:100800005A0F5701B35063586D4B352EBFF7F25353
:100810008671E8D4FBCD1E847F4B35EC4CFA9811E1
:10082000676841F0BDAE5E0106E9D3A0A73A20F8A3
:100830005F4986C0BCD5D935CE74F39CAD028BA080
:100840004756DEC71E19FACC51F0E3C431F033BC71
:100850003CF8D56989FFA9670444799C9F833AA72E
:10086000D21E0D27A63C6DCCF62524B496D2496D38
:1008700000915047053D7A0CDAF7EFD79D0148C447
:1008800079A0AE6A4C58DF9D4B9A4F5FA8902675B1
:100890008286FC96C1B3199E6DD08064462FC6F146
:1008A000923AB221B7D9BCD0FEE9C06DEFD8DB3C9B
:1008B0007B6925E89FEDADFD03542DB6A1EE08D769
:1008C00008DF08F608FC08E60850093D0966090338
:1008D000091409280935095761726E696E6700525B
:1008E000455455524E00496E76616C6964004D6501
:1008F0007373616765004552524F520044414E4741
:100900004552004F696C2050726573737572652093
:100910004C6F77004261747465727920566F6C7405
:10092000616765204C6F7700496E76616C69642061
:100930004461746100496E76616C6964004F696C52
:100940002054656D702048696768205761726E0099
:10095000456E67696E652054656D702048696768EB
:10096000205761726E00456E67696E652054656D33
:100970007065726174757265204572726F720020C5
:10098000425554544F4E530020506F736974696F31
:100990006E732C200020414443494E505554532C33
:1009A000200020494E5055543A2000206174200008
:1009B0005B494E464F5D3A20003A20427574746F91
:1009C0006E20506F736974696F6E204368616E6743
:1009D000652C2073746174653A20002061742000D6
:1009E0005B494E464F5D3A20003A20526F74617267
:1009F0007920506F736974696F6E204368616E6708
:100A0000652C206E6577506F733A2000206174204A
:100A1000005B494E464F5D3A20003A2052656769B7
:100A2000737465724576656E742072657475726E46
:100A300065642061206E65676174697665206E75F6
:100A40006D6265720020617420005B4552524F5206
:100A50005D3A2000789CED9CDD72EC360C83F3E669
:100A60007AE9DE747AE14E936C62890008797F4EF0
:100A700027C17771A6B12812E4D292EC6CFAF6166F
:100A80004208218410420821841042082184104227
:100A90000821841042082184104208218410420851
:100AA00021841042082184F0BB39C6F1FB189FB99C
:100AB0001BFCC9EA933965147B21D106F6FB8A4AEF
:100AC00038F5FE796CE73EF6EBD8CE189E4A16A1B3
:100AD000FF0C99C64545ABC3CBA727EBDADE9C9D3F
:100AE0002ADE5B776DDFFB2A312DBF84F66EEB319A
:100AF00023FD30F673BF5045DD9D9B31D5A8ABD9A2
:100B0000F3EB7ADBC78FF58378EF0270470FF05F66
:100B10009FC81A564FCD1CAC0AA9A43346E3AD7842
:100B2000304F7A249787AE6BD0D7467E5F63CDAACD
:100B30004C359F8D88C5A83EB86F14F7EC5D2B5BD4
:100B400007996AE8A9CF75AD517F1E5C67D475AD72
:100B500058E0DDD2F3F90C74945E39C81CE4ECE57E
:100B6000F33953D4BD8B45158EF3CF28B732DB57FD
:100B7000FD15C3CFD5F7CE66D45E7333925E1FB03A
:100B80007A751990F843E9D099334E7603C7AE31A0
:100B9000D6392A1656788E77D03DB46AC37E590D61
:100BA000B51A5EBB4BBD36D611BC23229D57B2BCD5
:100BB0001FAEA8AF1B1BE51EB0DDEA13785AF595F2
:100BC0003A63957337AF368E36A40057E11C0FABEE
:100BD000E1B5BBD26B384B99D34D1DAFDE13573502
:100BE000D8EB8CCFF30ED0BEA874DF4F926AC83B0F
:100BF000F1FD5A13ABE437CEBE0EBAAA7DFBFD0B56
:100C0000BC7322F51BE771902EF9F43CEFDE0CADBE
:100C1000A0D8C975A5D7719D7A4202F59A3221965E
:100C2000D6CA385BE26A146D20A68E35E577A0152A
:100C3000C7D229BCD6F85C8F9AD57947B5A833CEF0
:100C40009F21BF83783567AF64A518F7F6213B3144
:100C5000A158B73166DB7A98323FDBCD57909FF5CC
:100C60005A136B5EF746AD9FA153F8ACF5DBEEB5BA
:100C700045CF7DBF95987D704B30B3E8507B52A730
:100C8000D1CB41E5F46D51EB82ABC5D59658E32845
:100C90003B22F2B3AD573EC5D01540817BADEA2B68
:100CA0005ED53C6D2567D07B966B076A810A5E82B4
:100CB0004EA397C3E9E752AB2F0DA3C6C43AB85A67
:100CC000ADB83C63DE22AEE73373C767368ECA89A0
:100CD000E1AE6ADD9320B7E255216A6B0DCA5E3939
:100CE0007B77F6305D974EA39783C84946F1CE00D7
:100CF0005BBE601FCDD750FCC2E036E4FAFA04D1E7
:100D0000E8B5BB15F59A6103AB0375E19F575B949A
:100D10008FCA75A7120E35D39DF79138833ADFCF6E
:100D200086799AAF39B1940DCB14DB77991B944E29
:100D300072638868CD1356B546B1948E7D8D5E067C
:100D40009D4EF6CCB9BFAEF576C862BEE6C43AD9C0
:100D50000C3CC6E6285FA8763DFD5C1CC19BE164A7
:100D60007C7E3E12194CF7C4BE462F03117F39AB6F
:100D7000AD9AFC77267D2466B1463362AD7ACECF3C
:100D800057E4796DC9082AE2369227AC6BAA4AF873
:100D900053AC5A74A6FB1A9B0C06AEC5291E3CC563
:100DA00054BDD2BFACD18238B968B5F4CD72C90197
:100DB000C717BA6AAF0C36823DEC8D5B3ED7BD4596
:100DC000AE49C7E1ED40A49AA64633035AB34E5349
:100DD0003D994E6342F1EEF770FE1E4D5FB338FF52
:100DE000DDD3C3EF35A717B4D66EBE9FB33303F977
:100DF000F0DE929521B53BB54F2F5B3980959EEA89
:100E00002E7B94E1BFCB06D6E3CBFA5BC5FEBA7668
:100E1000D431F56EA2D383D6089975DB6B8BC232C1
:100E200047BDFBDD88B1D8091545CD03D7B55F04B3
:100E3000C95C3F8BC3515AD53ADFEE043C438D6EFB
:100E40004668DE3938F3AEF02BFFD2C078DAD4BD75
:100E5000A2CF6AC4FB7C9A02FE5544E7DCEB7EB667
:100E60008D4E53CF3E3B917E0E2C775D993AB6570F
:100E7000D962313C9DC45FD9EFDD4F775785936DC3
:100E8000B88EB35F3CF79B5EAFE39F1F924708218C
:100E9000FC59DCD3C23432DC59FD5F38DDA3635F1B
:100EA000633D9104C54E27F570DF2AEAA367BD466E
:100EB00007AE67E0783DE4B1B816CFE8F77CC670BE
:100EC000CC5FF15C1DED2CFC7E9AFCCE1A5E516F5E
:100ED000B0D01B8A3A07BDA1A53E99E7F106FE7F77
:100EE0001CD073B1C1EF11D937C0BD2EF278C4E761
:100EF000A8F6AE6B1E9FA5A31673FD3DD6B735B001
:100F00003C54AFE1371447E9DB7A37A26FABCF5ED1
:100F1000AA1E7C6DCDB97A563545C151CF5C457955
:100F2000E663D766FDF9FD1AAE0F755D19B8FFBE11
:100F3000FF45B05E6B3AE21669D520E37EE4077A9E
:100F4000AB44076B1FF046F4BFECB4F6E27DF2C190
:100F50003ACCBD03ED3BB75E9BAF8F8F78B2D78A9B
:100F600027D26BBD82626F7447B93FF656DAFF51E4
:100F7000AF3DE904F55A1DB59A6C05C33B9D3AADEA
:100F8000A14FF6E36F76EAB5766619AD673E743F1A
:100F9000F59E516D6EDF0EACC175EFF4286F7CECE1
:100FA000E273C2A559CFF0882C3E41EB015E236469
:100FB00057885D77683BE997EDC33BEBD8F433EE98
:100FC00051B6EADF478D8D3F47B92799FB9F52FE07
:100FD000081DAE47ACE738F01D8DB5E32786D90272
:100FE0005D693AE2A66028BFF88C677A6E547E7518
:100FF0007355006BB8C31ADB1979FAB9EEC93AD048
:10100000F8874D7D0E787B033B1F59A36ABCCEFB4E
:10101000BA87429BC9FE0D9EF0DF63AD9E56C52880
:1010200037A8BC4638C7B9CE9AC96964F03862D6C9
:1010300021C65C8F0F58BB940EE4F7E69D3EA98D48
:1010400072B5E909E86B8DB97B5E3BC0C90C9E1C8B
:101050009DE8E45E0167BF9BFD3D3C647F7AF8AC90
:1010600087786CAB84AA1914BC8F1C94AF6B63F6A1
:101070002CF38CF70C1DC82274E00EF2E16BC6FB5A
:10108000C8F7E8B2074D221EB1F33E5907F9ABF39A
:10109000D92648541F851042082184104208218413
:1010A0001042082184104208218410420821841033
:1010B0004208218410420821841042082184109E95
:1010C000C9BF20F567965B494E464F5D3A20537580
:1010D0006273797374656D20496E6974003A2052A9
:1010E000656769737465724576656E7420726574A0
:1010F00075726E65642061206E65676174697665DE
:10110000206E756D6265720020617420005B45522F
:10111000524F525D3A20005B494E464F5D3A20499E
:101120006E697453756273797374656D7320436F60
:101130006D706C65746564003A20537562737973E1
:1011400074656D206661696C656420746F20696EDA
:10115000697469616C697A650020617420005B457F
:1011600052524F525D3A20004A756E20203920328B
:101170003031380056455253494F4E3A20002D2DFC
:101180002D2D2D2D2D2D2D2D2D44415348424F41D8
:1011900052442D2D2D2D2D2D2D2D2D2D2D2D2D2D43
:1011A0000000B7294D4011241FBECFEFD0E1DEBFB4
:1011B000CDBF13E0A0E0B1E0E2EEF7E900E00BBF45
:1011C00002C007900D92A034B107D9F726E0A0E441
:1011D000B3E001C01D92A83BB207E1F718E0C3EDF0
:1011E000D8E004C02197FE010E942747C13DD107E6
:1011F000C9F70E94663D0C94ED4B0C940000A09141
:101200004003B0914103109769F0ED91FC91119763
:1012100012968D919C911397909341038093400374
:101220000995EDCF0895CF93DF93EC0184E090E032
:101230000E94FC48009781F0FC01D183C08320917B
:101240004003309141033383228390934103809381
:10125000400380E090E002C081E090E0DF91CF9118
:1012600008952F923F924F925F926F927F928F924A
:101270009F92AF92BF92CF92DF92EF92FF920F9325
:101280001F93CF93DF93CDB7DEB760970FB6F89477
:10129000DEBF0FBECDBF7C011B016A01FC011782BE
:1012A0001682838181FF44C39E012F5F3F4F390126
:1012B000F7019381F10193FD859193FF81911F01C6
:1012C000882309F431C3853239F493FD859193FF66
:1012D00081911F01853239F4B70190E00E941A4BC9
:1012E00056016501E5CF10E0512C912CFFE1F91575
:1012F000D8F08B3279F038F4803279F08332A1F46F
:10130000F92DF0612EC08D3261F0803369F4292D02
:1013100021602DC0392D3260932E892D8460982E46
:101320002AC0E92DE86015C097FC2DC020ED280FDC
:101330002A3088F496FE06C03AE0139F200D11244F
:10134000122F19C08AE0589E200D1124522EE92D2B
:10135000E0629E2E10C08E3231F496FCE5C2F92D6B
:10136000F0649F2E08C08C3621F4292D2068922E1F
:1013700002C0883641F4F10193FD859193FF81917C
:101380001F018111B3CF9BEB980F933020F4992D5F
:101390009061805E07C09BE9980F933008F066C1AA
:1013A000992D9F7E96FF16E09F73992E853619F42E
:1013B0009064992E08C0863621F4392F3068932E18
:1013C00002C01111115097FE07C01C3350F4442481
:1013D0004394410E27E00BC0183038F027E017E0A7
:1013E00005C027E09CE3492E02C0212F412C560165
:1013F00084E0A80EB11CF601608171818281938125
:10140000042DA3010E941D4A6C01F981FC87F0FFA5
:1014100002C0F3FF06C091FC06C092FE06C000E2C7
:1014200005C00DE203C00BE201C000E08C858C70AA
:1014300019F001115AC29BC297FE10C04C0CFC85DA
:10144000F4FF04C08A81813309F44A94141474F5BA
:1014500028E0241578F588E0482E2CC096FC2AC098
:10146000812F90E08C159D059CF03CEFC3163FEF5B
:10147000D30674F0892D8068982E0AC0E2E0F0E06F
:10148000EC0FFD1FE10FF11D8081803319F4115025
:101490001111F4CF97FE0EC044244394410E812FC6
:1014A00090E0C816D9062CF41C1904C044244394B7
:1014B00001C010E097FE06C01C141D0434F4C601E0
:1014C000019605C085E090E002C081E090E0011146
:1014D0000196112331F0212F30E02F5F3F4F820F13
:1014E000931F252D30E08217930714F4581A01C07A
:1014F000512C892D897049F4552039F0B70180E2CB
:1015000090E00E941A4B5A94F7CF002329F0B701BC
:10151000802F90E00E941A4B93FC09C0552039F0AF
:10152000B70180E390E00E941A4B5A94F7CF97FEE0
:101530004CC04601D7FE02C0812C912CC6018819EF
:101540009909F301E80FF91FFE87ED879601241929
:101550003109388B2F87012F10E011950195110962
:101560003FEF8316930629F4B7018EE290E00E94C4
:101570001A4BC814D9044CF08F85988988159905A1
:1015800024F4ED85FE85818101C080E3F1E08F1AAE
:1015900091082D853E852F5F3F4F3E872D87801612
:1015A00091062CF0B70190E00E941A4BD9CFC814D5
:1015B000D90441F49A81963320F4953319F43C858B
:1015C00034FF81E3B70190E04EC08A81813319F086
:1015D0009C859F7E9C87B70190E00E941A4B111159
:1015E00005C094FC18C085E690E017C0B7018EE2F4
:1015F00090E00E941A4B1E5F82E001E0080FF301A9
:10160000E80FF11D8081B70190E00E941A4B802FF6
:101610000113F3CFE6CF85E490E0B7010E941A4BA7
:10162000D7FC06C0C114D10441F4EC85E4FF05C029
:10163000D194C194D1088DE201C08BE2B70190E052
:101640000E941A4B80E32AE0C216D1042CF08F5F6F
:10165000FAE0CF1AD108F7CFB70190E00E941A4BF9
:10166000B701C601C0960E941A4B54C1833631F0AF
:10167000833779F0833509F056C020C0560132E037
:10168000A30EB11CF6018081898301E010E06301A3
:1016900012C05601F2E0AF0EB11CF601C080D1803D
:1016A00096FE03C0612F70E002C06FEF7FEFC601AE
:1016B0000E940F4B8C01F92DFF7714C0560122E0D8
:1016C000A20EB11CF601C080D18096FE03C0612F2E
:1016D00070E002C06FEF7FEFC6010E94044B8C01E7
:1016E000F92DF0689F2EF3FD1AC0852D90E00817A4
:1016F0001907A8F4B70180E290E00E941A4B5A94AF
:10170000F4CFF60197FC859197FE81916F01B701A7
:1017100090E00E941A4B51105A9401501109011582
:10172000110579F7F7C0843611F0893661F5560155
:1017300097FE09C024E0A20EB11CF6016081718100
:10174000828193810AC0F2E0AF0EB11CF601608184
:101750007181072E000C880B990BF92DFF769F2EB7
:1017600097FF09C090958095709561957F4F8F4F39
:101770009F4FF0689F2E2AE030E0A3010E948F4B1C
:10178000C82EC6183FC0092D853721F40F7E2AE0E8
:1017900030E01DC0097F8F3691F018F4883559F07C
:1017A000C3C0803719F0883711F0BEC0006104FF54
:1017B00009C0046007C094FE08C0066006C028E0A7
:1017C00030E005C020E130E002C020E132E0560107
:1017D00007FF09C084E0A80EB11CF6016081718189
:1017E0008281938108C0F2E0AF0EB11CF6016081E6
:1017F000718180E090E0A3010E948F4BC82EC61833
:101800000F77902E96FE0BC0092D0E7FC11650F457
:1018100094FE0AC092FC08C0092D0E7E05C0DC2C87
:10182000092D03C0DC2C01C0D12E04FF0DC0FE0128
:10183000EC0DF11D8081803311F4097E09C002FF97
:1018400006C0D394D39404C0802F867809F0D39433
:1018500003FD11C000FF06C01C2DD51480F4150D2A
:101860001D190DC0D51458F4B70180E290E00E9414
:101870001A4BD394F7CFD51410F45D1801C0512C36
:1018800004FF10C0B70180E390E00E941A4B02FFF2
:1018900017C001FD03C088E790E002C088E590E032
:1018A000B7010CC0802F867859F001FF02C08BE28F
:1018B00001C080E207FD8DE2B70190E00E941A4B63
:1018C000C11638F4B70180E390E00E941A4B115022
:1018D000F7CFCA94F301EC0DF11D8081B70190E0C0
:1018E0000E941A4BC110F5CF15C0F4E0F51560F554
:1018F00084E0581A93FE1FC0011127C02C8523FFD6
:101900002AC004E910E0392D3071932EF80184913A
:10191000811124C0552009F4E4CCB70180E290E0A5
:101920000E941A4B5A94F6CFF7018681978126C000
:101930008FEF9FEF23C0B70180E290E00E941A4B27
:101940005A945110F8CFD8CF512CB701802F90E086
:101950000E941A4BD3CF08E910E0D5CF91108052E6
:10196000B70190E00E941A4B0F5F1F4FCFCF23E0CB
:10197000251510F483E0BDCF512CC0CF60960FB673
:10198000F894DEBF0FBECDBFDF91CF911F910F91B5
:10199000FF90EF90DF90CF90BF90AF909F908F908F
:1019A0007F906F905F904F903F902F9008959FB7DA
:1019B000F8948091420381110CC0289A209A8CB52A
:1019C00080618CBD8CB580648CBD219A229A8091F7
:1019D00042038F5F809342039FBF08951F93CF936D
:1019E000DF93FC0193858485289820E92EBD0000B3
:1019F0000DB407FEFDCF2EB524E22EBD00000DB4C0
:101A000007FEFDCF2EB528EE2EBD00000DB407FE5B
:101A1000FDCF2EB59EBD00000DB407FEFDCF9EB5D7
:101A20008EBD00000DB407FEFDCF8EB5289A8585CA
:101A300096858617970708F040C014EEB4E2A0E13F
:101A4000CCEFDFE02898AEBD00000DB407FEFDCF5F
:101A50008EB5BEBD00000DB407FEFDCF8EB51EBD18
:101A600000000DB407FEFDCF8EB51EBC00000DB406
:101A700007FEFDCF8EB51EBC00000DB407FEFDCFE6
:101A80009EB51EBC00000DB407FEFDCF8EB5289A92
:101A9000492F582F4F3F8FE05807B1F023853485E9
:101AA000241B350B2C7F3F70CE01821B930B968736
:101AB00085878617970708F4C5CF8181811109C0F2
:101AC000DF91CF911F91089582E3DF91CF911F9114
:101AD000089583859485A0E0B0E09058AF4EBF4F45
:101AE00028982A2F20682EBD00000DB407FEFDCFD8
:101AF0002EB59EBD00000DB407FEFDCF2EB58EBDE8
:101B000000000DB407FEFDCF8EB581E0818380E03B
:101B1000DF91CF911F910895EF92FF920F931F9342
:101B2000CF93DF93EC017A018B018981882309F43B
:101B300072C08D859E85049708F042C0289A8B85D7
:101B40009C85289820E92EBD00000DB407FEFDCF2E
:101B50002EB524E22EBD00000DB407FEFDCF2EB53C
:101B600028EE2EBD00000DB407FEFDCF2EB58EBDB4
:101B700000000DB407FEFDCF2EB59EBD00000DB4D4
:101B800007FEFDCF8EB51EBC00000DB407FEFDCFD5
:101B90008EB51EBC00000DB407FEFDCF8EB5289A91
:101BA00081E0898364E070E0CE0118DF823341F484
:101BB00082E3DF91CF911F910F91FF90EF900895F5
:101BC000EEBC00000DB407FEFDCF8EB5FEBC0000DC
:101BD0000DB407FEFDCF8EB50EBD00000DB407FE9F
:101BE000FDCF8EB51EBD00000DB407FEFDCF8EB536
:101BF0008B859C8504969F709C878B878D859E85A1
:101C000004979E878D8780E0DF91CF911F910F9180
:101C1000FF90EF9008958B859C85A0E0B0E09058F0
:101C2000AF4EBF4F28982A2F20682EBD00000DB45C
:101C300007FEFDCF2EB59EBD00000DB407FEFDCF03
:101C40002EB58EBD00000DB407FEFDCF8EB581E030
:101C500089838D859E85049708F03CC0289A8B85E2
:101C60009C85289820E92EBD00000DB407FEFDCF0D
:101C70002EB524E22EBD00000DB407FEFDCF2EB51B
:101C800028EE2EBD00000DB407FEFDCF2EB58EBD93
:101C900000000DB407FEFDCF2EB59EBD00000DB4B3
:101CA00007FEFDCF8EB51EBC00000DB407FEFDCFB4
:101CB0008EB51EBC00000DB407FEFDCF8EB5289A70
:101CC00081E0898364E070E0CE0188DE823311F424
:101CD00082E324C0EEBC00000DB407FEFDCF8EB53C
:101CE000FEBC00000DB407FEFDCF8EB50EBD00009A
:101CF0000DB407FEFDCF8EB51EBD00000DB407FE6E
:101D0000FDCF8EB58B859C8504969F709C878B87B5
:101D10008D859E8504979E878D8780E0289A4B85C8
:101D20005C85289890E99EBD00000DB407FEFDCFAC
:101D30009EB594E29EBD00000DB407FEFDCF9EB59A
:101D400098EE9EBD00000DB407FEFDCF9EB54EBDC2
:101D500000000DB407FEFDCF9EB55EBD00000DB4C2
:101D600007FEFDCF9EB51EBC00000DB407FEFDCFE3
:101D70009EB51EBC00000DB407FEFDCF9EB5289A8F
:101D80001982DF91CF911F910F91FF90EF900895ED
:101D90008F929F92AF92BF92CF92DF92EF92FF927B
:101DA0000F931F93CF93DF938C01EB0169017A01AD
:101DB00083E0C80ED11CE11CF11CECEFCE22C11453
:101DC000D104E104F10491F188EEA82E94E2B92E39
:101DD00020E9922E88248394F80185859685A0E0D9
:101DE000B0E08C159D05AE05BF0570F180E090E078
:101DF000DC0129912EBD00000DB407FEFDCF2EB5EC
:101E00000196A11DB11D8C159D05AE05BF0588F37A
:101E1000F801838594858C0D9D1D9F709487838721
:101E2000858596858C199D099687858780E0DF9149
:101E3000CF911F910F91FF90EF90DF90CF90BF90C7
:101E4000AF909F908F900895818181117EC0F8019D
:101E50009385848528989EBC00000DB407FEFDCFB5
:101E60002EB5BEBC00000DB407FEFDCF2EB5AEBC36
:101E700000000DB407FEFDCF2EB59EBD00000DB4D1
:101E800007FEFDCF9EB58EBD00000DB407FEFDCF51
:101E90008EB5289AF80185859685AC0160E070E0E2
:101EA000C416D506E606F70610F4B701A6014115DB
:101EB000510561057105C9F0FE01CE01840F951F22
:101EC00021912EBD00000DB407FEFDCF2EB58E175B
:101ED0009F07B1F7DB01CA010197A109B10901967A
:101EE000C80FD91FF80185859685F80123853485AB
:101EF000240F351F3F7034872387841B950B9687EB
:101F00008587C41AD50AE60AF70A3C2D2D2DF1E083
:101F1000CF16F8E0DF06E104F10410F030E028E02D
:101F2000632F722F8617970748F4F801818181117A
:101F30007FC0C80153DD823309F479CFC114D104C5
:101F4000E104F10409F048CF71CF289A8385948584
:101F500028989EBC00000DB407FEFDCF2EB5BEBC78
:101F600000000DB407FEFDCF2EB5AEBC00000DB4D1
:101F700007FEFDCF2EB58EBD00000DB407FEFDCFD0
:101F80002EB59EBD00000DB407FEFDCF8EB51EBC64
:101F900000000DB407FEFDCF8EB51EBC00000DB4D1
:101FA00007FEFDCF8EB5289AF801118293858485AE
:101FB00028989EBC00000DB407FEFDCF2EB5BEBC18
:101FC00000000DB407FEFDCF2EB5AEBC00000DB471
:101FD00007FEFDCF2EB59EBD00000DB407FEFDCF60
:101FE0009EB58EBD00000DB407FEFDCF8EB5289ABC
:101FF000F80183859485A0E0B0E09058AF4EBF4FC4
:1020000028982A2F20682EBD00000DB407FEFDCFB2
:102010002EB59EBD00000DB407FEFDCF2EB58EBDC2
:1020200000000DB407FEFDCF8EB5F801818232CFDE
:10203000289A8385948528989EBC00000DB407FEDD
:10204000FDCF2EB5BEBC00000DB407FEFDCF2EB5F2
:10205000AEBC00000DB407FEFDCF2EB58EBD000056
:102060000DB407FEFDCF2EB59EBD00000DB407FEDA
:10207000FDCF8EB51EBC00000DB407FEFDCF8EB5A2
:102080001EBC00000DB407FEFDCF8EB5289AF801E6
:1020900081824FCFEF92FF920F931F93CF93DF93E5
:1020A000CDB7DEB7C054D1090FB6F894DEBF0FBE6E
:1020B000CDBF2B960EAD1FAD2B979E012C5A3F4FD7
:1020C00064964EAD5FAD649760E470E0CE0101961A
:1020D0007C010E94564B4CE05FEF6FEF7FEFC80131
:1020E0001BDD2F964EAD5FAD2F97052E000C660BB6
:1020F000770BBA01552744272D968EAD9FAD2D97AE
:10210000A0E0B0E0482B592B6A2B7B2BC80104DDE3
:1021100062964EAD5FAD629760E070E0BA01552700
:10212000442760968FAD6097482BC801F5DCF70116
:1021300001900020E9F79F012E193F0940E050E08F
:10214000F8018181882389F0B701C80121DEC05CD4
:10215000DF4F0FB6F894DEBF0FBECDBFDF91CF913A
:102160001F910F91FF90EF90089583859485A0E0D3
:10217000B0E09058AF4EBF4F28986A2F60686EBD90
:1021800000000DB407FEFDCF6EB59EBD00000DB47E
:1021900007FEFDCF6EB58EBD00000DB407FEFDCF6E
:1021A0008EB581E0F8018183B701C801F1DD289A7D
:1021B000F80143855485289890E99EBD00000DB430
:1021C00007FEFDCF9EB594E29EBD00000DB407FE54
:1021D000FDCF9EB598EE9EBD00000DB407FEFDCF6D
:1021E0009EB54EBD00000DB407FEFDCF9EB55EBD91
:1021F00000000DB407FEFDCF9EB51EBC00000DB45F
:1022000007FEFDCF9EB51EBC00000DB407FEFDCF3E
:102210009EB5289AF80111829ACF089508950895DD
:1022200008950895EF92FF920F931F93CF93DF933A
:10223000EC018B017A010E941B2C81E08E8FF8014A
:1022400080819181A281B381803EF4E09F07A10546
:10225000B10591F0813EF4E09F07A105B105F9F0C9
:10226000823E9440A105B10561F1DF91CF911F91AC
:102270000F91FF90EF90089588E0F701DE015F96DF
:1022800001900D928A95E1F7F80180819181A281F8
:10229000B381813EF4E09F07A105B10509F788E00D
:1022A000F701DE01979601900D928A95E1F7F8010A
:1022B00080819181A281B381823E9440A105B105C4
:1022C000A1F688E0F701DE019F9601900D928A95B4
:1022D000E1F7DF91CF911F910F91FF90EF9008955B
:1022E00087569F4F61E0FC0180819181CDC7875661
:1022F0009F4F60E0FC0180819181C6C71F93CF93FF
:10230000DF93EC01162F63E171E084E895E00E9411
:10231000A5431A8FDF91CF911F9108951F93CF93FB
:10232000DF93EC01162F60E371E084E895E00E94F2
:10233000A5431B8F1D8FDF91CF911F9108951F9390
:10234000CF93DF93EC01162F6DE471E084E895E004
:102350000E94A5431C8FDF91CF911F91089563EBDD
:1023600071E084E895E00C94694366E971E084E8E3
:1023700095E00C9469430C94524604970C94524691
:10238000EF92FF920F931F93CF93DF93CDB7DEB7FA
:1023900068970FB6F894DEBF0FBECDBF8C0160E02A
:1023A0000E94A831F894F801968D992351F0F80114
:1023B000168E88E17F96D801D79601900D928A9566
:1023C000E1F77894992309F442C1F80187A990AD07
:1023D000988F8F8B888D89838F898A8369817A8191
:1023E0007801FFE4EF0EF11C80E090E00E94464887
:1023F00020E030E048EC52E40E94B247F7016083ED
:10240000718382839383F80181AD92AD9E8B8D8B16
:102410008E8989838D898A8369817A817801F3E540
:10242000EF0EF11C80E090E00E944648F7016083C7
:10243000718382839383F80183AD94AD9C8B8B8BE6
:102440008C8989838B898A8369817A817801F7E510
:10245000EF0EF11C80E090E00E94464820E030E062
:1024600048EC52E40E94B247F70160837183828393
:102470009383F80185AD96AD9A8B898B8A89898380
:1024800089898A8369817A817801FBE5EF0EF11CE5
:1024900080E090E00E94464820E030E048EC52E4C2
:1024A0000E94B247F70160837183828393837C9794
:1024B00080819181988B8F87888989838F858A8392
:1024C00069817A817801FFE5EF0EF11C80E090E0F0
:1024D0000E94464820E030E048EC52E40E94B247B7
:1024E000F70160837183828393837E9780819181DA
:1024F0009E878D878E8589838D858A8369817A8180
:102500007801F3E6EF0EF11C80E090E00E9446486F
:1025100020E030E048EC52E40E94B247F7016083CB
:10252000718382839383B097808191819C878B870D
:102530008C8589838B858A8369817A817801F7E626
:10254000EF0EF11C80E090E00E94464820E030E071
:1025500048EC52E40E94B247F701608371838283A2
:102560009383B297808191819A8789878A858983AD
:1025700089858A8369817A817801FBE6EF0EF11CF7
:1025800080E090E00E94464820E030E048EC52E4D1
:102590000E94B247F7016083718382839383B4976B
:1025A0008081918198878F83888589838F818A83B1
:1025B00069817A817801FFE6EF0EF11C80E090E0FE
:1025C0000E94464820E030E048EC52E40E94B247C6
:1025D000F7016083718382839383B69780819181B1
:1025E0009E838D838E8189838D818A8369817A819F
:1025F0007801F3E7EF0EF11C80E090E00E9446487E
:1026000020E030E048EC52E40E94B247F7016083DA
:10261000718382839383B897808191819C838B831C
:102620008C8189838B818A8369817A8109581F4FC4
:1026300080E090E00E94464820E030E048EC52E420
:102640000E94B247F8016083718382839383689606
:102650000FB6F894DEBF0FBECDBFDF91CF911F91B3
:102660000F91FF90EF900895CF92DF92EF92FF923B
:102670000F931F93CF93DF938C01EB017A016C01D1
:1026800024E0C21AD108C6010E941B2C81E0F60189
:10269000868F88819981AA81BB81803EF4E09F0763
:1026A000A105B105A1F0813E24E09207A105B10585
:1026B00001F1823E9440A105B10561F1DF91CF9116
:1026C0001F910F91FF90EF90DF90CF90089588E0D9
:1026D000F701D8015B9601900D928A95E1F7888108
:1026E0009981AA81BB81813E24E09207A105B105B1
:1026F00001F788E0F701D801939601900D928A9531
:10270000E1F788819981AA81BB81823E9440A1052D
:10271000B105A1F688E0F701D8019B9601900D92D2
:102720008A95E1F7CBCF1F93CF93DF93FC0193857D
:102730008485289820E92EBD00000DB407FEFDCF4A
:102740002EB524E22EBD00000DB407FEFDCF2EB540
:1027500028EE2EBD00000DB407FEFDCF2EB59EBDA8
:1027600000000DB407FEFDCF9EB58EBD00000DB478
:1027700007FEFDCF8EB5289A858596858617970723
:1027800008F040C014EEB4E2A0E1CCEFDFE02898FE
:10279000AEBD00000DB407FEFDCF8EB5BEBD00007E
:1027A0000DB407FEFDCF8EB51EBD00000DB407FEB3
:1027B000FDCF8EB51EBC00000DB407FEFDCF8EB55B
:1027C0001EBC00000DB407FEFDCF9EB51EBC000070
:1027D0000DB407FEFDCF8EB5289A492F582F4F3FD5
:1027E0008FE05807B1F023853485241B350B2C7FEF
:1027F0003F70CE01821B930B9687858786179707BC
:1028000008F4C5CF8181811109C0DF91CF911F915B
:10281000089582E3DF91CF911F9108958385948578
:10282000A0E0B0E09058AF4EBF4F28982A2F206804
:102830002EBD00000DB407FEFDCF2EB59EBD0000DD
:102840000DB407FEFDCF2EB58EBD00000DB407FE02
:10285000FDCF8EB581E0818380E0DF91CF911F9124
:102860000895CF93DF93EC010E94C12D8EE691E095
:10287000998388838CE891E09D838C831A8E1B8ECC
:102880001C8E1D8E1E8E88E1FE017F96DF01982F23
:102890001D929A95E9F77896DF01982F1D929A95E7
:1028A000E9F7789690E3DF011D929A95E9F7F096A3
:1028B000DF011D928A95E9F7789611821082C7563A
:1028C000DF4F19821882DF91CF910895FC01818139
:1028D00081115CC093858485289820E92EBD000075
:1028E0000DB407FEFDCF2EB524E22EBD00000DB4C1
:1028F00007FEFDCF2EB528EE2EBD00000DB407FE5D
:10290000FDCF2EB59EBD00000DB407FEFDCF9EB5D8
:102910008EBD00000DB407FEFDCF8EB5289A74EE73
:1029200064E280E128988EBD00000DB407FEFDCF63
:102930009EB56EBD00000DB407FEFDCF9EB57EBDF9
:1029400000000DB407FEFDCF9EB51EBC00000DB407
:1029500007FEFDCF9EB51EBC00000DB407FEFDCFE7
:102960004EB51EBC00000DB407FEFDCF9EB5289AE3
:10297000242F392F438554854217530729F02F3FC1
:102980003F4081F682E3089580E00895289A838588
:102990009485289820E92EBD00000DB407FEFDCFD8
:1029A0002EB524E22EBD00000DB407FEFDCF2EB5DE
:1029B00028EE2EBD00000DB407FEFDCF2EB58EBD56
:1029C00000000DB407FEFDCF2EB59EBD00000DB476
:1029D00007FEFDCF8EB51EBC00000DB407FEFDCF77
:1029E0008EB51EBC00000DB407FEFDCF8EB5289A33
:1029F000118270CFCF93DF93EC01269640E05FEF1A
:102A00006FEF7FEFCE0188D847E050E060E076E2DC
:102A1000CE0182D840E050E060E076E2CE017CD882
:102A200048E25FEF6FEF7FEFCE0176D840E050E8ED
:102A300060E070E0CE0170D840E050E860E070E007
:102A4000CE016AD847E25FEF6FEF7FEFCE0164D827
:102A500040E050E0BA01CE015FD840E050E060EFC6
:102A60007FEFCE0159D84AE25FEF6FEF7FEFCE01E3
:102A700053D841E050E060E07FE1CE014DD840E81E
:102A800050E060E079EACE0147D840E050E060E0F5
:102A900071E2CE0141D846E25FEF6FEF7FEFCE01EA
:102AA0003BD84AE25FEF6FEF7FEFCE0135D840E0D1
:102AB00050E0BA01CE0130D841E05FEF6FEF7FEF19
:102AC000CE012AD8CE01DF91CF9100CFDC015D96F7
:102AD000EC915D979BEAE99F912D1124969596952F
:102AE0009695892F880F980F990F990FE91BF0E0A1
:102AF000EE0FFF1FEA0FFB1FE158FF4F808191810E
:102B0000009739F0DC01ED91FC910680F781E02D12
:102B10000994CD016FCF8F929F92AF92BF92CF92C7
:102B2000DF92EF92FF920F931F93CF93DF938C016D
:102B3000EB0169017A0183E0C80ED11CE11CF11C94
:102B4000ECEFCE22C114D104E104F104A1F188EE2E
:102B5000982E94E2A92E20E9B22E88248394F801BD
:102B600085859685A0E0B0E08C159D05AE05BF0576
:102B700080F180E090E0DC01FE0134913EBD000078
:102B80000DB407FEFDCF2EB521960196A11DB11DF6
:102B90008C159D05AE05BF0578F3F80183859485F6
:102BA0008C0D9D1D9F7094878387858596858C19D4
:102BB0009D099687858780E0DF91CF911F910F91C6
:102BC000FF90EF90DF90CF90BF90AF909F908F904D
:102BD0000895818181117FC0F801938584852898AB
:102BE000BEBC00000DB407FEFDCF2EB5AEBC00008C
:102BF0000DB407FEFDCF2EB59EBC00000DB407FE40
:102C0000FDCF2EB59EBD00000DB407FEFDCF9EB5D5
:102C10008EBD00000DB407FEFDCF8EB5289AF801D9
:102C200085859685AC0160E070E0C416D506E606A1
:102C3000F70610F4B701A6014115510561057105AC
:102C4000D1F0CE01840F951FFE0124912EBD00000E
:102C50000DB407FEFDCF2EB53196E817F907A9F799
:102C6000DB01CA010197A109B1090196C80FD91F5B
:102C7000F80185859685F80123853485240F351F55
:102C80003F7034872387841B950B96878587C41AEA
:102C9000D50AE60AF70A3C2D2D2DF1E0CF16F8E013
:102CA000DF06E104F10410F030E028E0632F722F1A
:102CB0008617970748F4F801818181117FC0C80108
:102CC00032DD823309F478CFC114D104E104F10478
:102CD00009F045CF70CF289A838594852898BEBC8B
:102CE00000000DB407FEFDCF2EB5AEBC00000DB444
:102CF00007FEFDCF2EB59EBC00000DB407FEFDCF34
:102D00002EB58EBD00000DB407FEFDCF2EB59EBDC5
:102D100000000DB407FEFDCF8EB51EBC00000DB443
:102D200007FEFDCF8EB51EBC00000DB407FEFDCF23
:102D30008EB5289AF8011182938584852898BEBCA7
:102D400000000DB407FEFDCF2EB5AEBC00000DB4E3
:102D500007FEFDCF2EB59EBC00000DB407FEFDCFD3
:102D60002EB59EBD00000DB407FEFDCF9EB58EBDF5
:102D700000000DB407FEFDCF8EB5289AF8018385BB
:102D80009485A0E0B0E09058AF4EBF4F28982A2F0E
:102D900020682EBD00000DB407FEFDCF2EB59EBDF0
:102DA00000000DB407FEFDCF2EB58EBD00000DB4A2
:102DB00007FEFDCF8EB5F801818231CF289A838539
:102DC00094852898BEBC00000DB407FEFDCF2EB53B
:102DD000AEBC00000DB407FEFDCF2EB59EBC0000BA
:102DE0000DB407FEFDCF2EB58EBD00000DB407FE5D
:102DF000FDCF2EB59EBD00000DB407FEFDCF8EB5F4
:102E00001EBC00000DB407FEFDCF8EB51EBC000039
:102E10000DB407FEFDCF8EB5289AF80181824FCF01
:102E20000F931F93CF93DF938C01EC01269642E220
:102E30005FEF6FEF7FEFCE010E948C0D40E050E01E
:102E4000BA01CE010E948C0DF8018781882309F414
:102E50005AC02DEE36E040E050E060ED71E0CE016A
:102E60005ADECE0133DD40E05FEF6FEF7FEFCE0142
:102E70000E948C0D47E050E060E076E2CE010E94B7
:102E80008C0D40E050E060E075E0CE010E948C0DBA
:102E900044E35CE36EE071E0CE010E948C0D48E5F6
:102EA00058E360E177E0CE010E948C0D48E550E7E1
:102EB00060E078E0CE010E948C0D4BE25FEF6FEF97
:102EC0007FEFCE010E948C0D40E050E0BA01CE01B0
:102ED0000E948C0D40E050E0BA01CE010E948C0DA2
:102EE00040E050E0BA01CE010E948C0D41E05FEF5E
:102EF0006FEF7FEFCE010E948C0DCE01DF91CF915D
:102F00001F910F91E3CC81899289A0E0B0E09058A5
:102F1000AF4EBF4F28982A2F20682EBD00000DB459
:102F200007FEFDCF2EB59EBD00000DB407FEFDCF00
:102F30002EB58EBD00000DB407FEFDCF8EB581E02D
:102F4000F80187832DEE36E040E050E060ED71E05F
:102F5000CE01E1DD289AF80181899289289820E93B
:102F60002EBD00000DB407FEFDCF2EB524E22EBD10
:102F700000000DB407FEFDCF2EB528EE2EBD0000DB
:102F80000DB407FEFDCF2EB58EBD00000DB407FEBB
:102F9000FDCF2EB59EBD00000DB407FEFDCF8EB552
:102FA0001EBC00000DB407FEFDCF8EB51EBC000098
:102FB0000DB407FEFDCF8EB5289AF801178251CFC8
:102FC000FF920F931F93CF93DF93EC010E949933ED
:102FD000CE0126DF80914303882309F4B8C08BE437
:102FE00093E00E94E220F82E282F44E951E068EA9D
:102FF00071E08BE493E00E941E2321E04F2D8E01AF
:103000000C5F1F4FB8018BE493E00E94C6224AE098
:1030100050E06F2D84E895E00E94FD438BE493E03F
:103020000E94E220F82E282F44E951E061EA71E085
:103030008BE493E00E941E2321E04F2DB8018BE426
:1030400093E00E94C6224AE050E06F2D84E895E0AC
:103050000E94FD438BE493E00E94E220F82E282F8B
:1030600044E951E06AE971E08BE493E00E941E2399
:1030700021E04F2DB8018BE493E00E94C6224AE084
:1030800050E06F2D84E895E00E94FD438AE190E0D6
:103090000E9451468C01AE01415B5F4FBE016A5FE9
:1030A0007F4FD1D0FE01E756FF4F118300837A97FF
:1030B00080819181892B09F458C032968081918159
:1030C000892B09F465C0329680819181892B09F49E
:1030D00062C0329680819181892B09F45FC032965B
:1030E00080819181892B09F45CC032968081918125
:1030F000892B09F459C0329680819181892B09F47A
:1031000056C0329680819181892B09F453C0329642
:1031100080819181892B09F450C032968081918100
:10312000892B09F44DC0329680819181892B09F455
:103130004AC0329680819181892B09F447C0CE0123
:10314000DF91CF911F910F91FF900C94ED2D83E4AF
:1031500093E00E945346892B09F441CF10923B041F
:1031600083E493E00E945C463ACF80E090E0FC016B
:10317000EE0FFF1FEC0FFD1FE158FF4F118300837F
:10318000CE01DF91CF911F910F91FF900C94ED2D07
:1031900081E090E0ECCF82E090E0E9CF83E090E046
:1031A000E6CF84E090E0E3CF85E090E0E0CF86E0FA
:1031B00090E0DDCF87E090E0DACF88E090E0D7CFF5
:1031C00089E090E0D4CF8AE090E0D1CF8BE090E02E
:1031D000CECFE82FCB01E73058F4F0E0EE0FFF1F21
:1031E000E753F74F6081718149E150E00C94F54A53
:1031F00060E070E049E150E00C94F54AE82FCB0123
:10320000E73060F4F0E0E155FE4FE081E63060F039
:1032100060E070E049E150E00C94F54A66EE78E039
:1032200049E150E00C94F54AF0E0EE0FFF1FE35443
:10323000F74F6081718149E150E00C94F54A08959F
:1032400008950C945246FC018FEF828313821482FE
:1032500085838683178210869CE4918782871386F4
:103260008487158686878787808B118A128A138ABE
:103270008FEE91E091838083558B448B778B668BA7
:1032800086E0808F118E0895FC01618F08959F92D2
:10329000AF92BF92CF92DF92EF92FF920F931F9364
:1032A000CF93DF93EC016B015A01922E4CE05FEF5C
:1032B0006FEF7FEF0E948C0DA501BB0C660B770BA7
:1032C000BA0155274427C601A0E0B0E0482B592B8E
:1032D0006A2B7B2BCE010E948C0DA80160E070E070
:1032E000BA01552744274929CE010E948C0DF701C8
:1032F00001900020E9F79F012E193F0940E050E0BE
:103300008981882379F0B701CE01DF91CF911F9198
:103310000F91FF90EF90DF90CF90BF90AF909F9074
:103320000C94C80E8B859C85A0E0B0E09058AF4E01
:10333000BF4F28986A2F60686EBD00000DB407FE6D
:10334000FDCF6EB59EBD00000DB407FEFDCF6EB57E
:103350008EBD00000DB407FEFDCF8EB581E08983E0
:10336000B701CE010E94C80E289A4B855C8528982B
:1033700090E99EBD00000DB407FEFDCF9EB594E21E
:103380009EBD00000DB407FEFDCF9EB598EE9EBD1C
:1033900000000DB407FEFDCF9EB54EBD00000DB47C
:1033A00007FEFDCF9EB55EBD00000DB407FEFDCF4C
:1033B0009EB51EBC00000DB407FEFDCF9EB51EBC21
:1033C00000000DB407FEFDCF9EB5289A1982DF914B
:1033D000CF911F910F91FF90EF90DF90CF90BF9012
:1033E000AF909F9008952F923F924F925F926F926D
:1033F0007F928F929F92AF92BF92CF92DF92EF9285
:10340000FF920F931F93CF93DF93CDB7DEB76497EF
:103410000FB6F894DEBF0FBECDBF6C012DB73EB71F
:103420003C8B2B8BDC0154960D911C915597F80128
:1034300084889588A688B78820E030E04AE753E47E
:10344000C501B4010E94F84818160CF0BEC5D6019B
:103450001296BC91B887F601F381FF83D6011496CA
:10346000BC91B983D8018D909D90AD90BC9020E027
:1034700030E044E553E4C501B4010E94F848181651
:103480000CF08DC5F601F281FE83D6011396BC9136
:10349000BD83F601F481FC83F80180A091A0A2A075
:1034A000B3A02DEC3CEC4CE351E4C501B4010E9407
:1034B000AE4787FF54C5D6011296BC91BA8BF60170
:1034C000F381FA83D6011496BC91B98BF601F5818C
:1034D000FB83D6011696BC91B987F601F781FA876E
:1034E00020E030E040EA50E4D80194966D917D915F
:1034F0008D919C9197970E94AE4787FF10C5F6016A
:10350000F281FB87D6011396BC91BC87F601F4814A
:10351000FD87D6011596BC91BE87F601F681FF871F
:10352000D6011796BC91B88B8091B8019091B901E2
:10353000EDB7FEB7E81BF90B0FB6F894FEBF0FBE50
:10354000EDBF2DB73EB72F5F3F4F59018091B601B8
:103550009091B701ADB7BEB7A81BB90B0FB6F894E1
:10356000BEBF0FBEADBFEDB7FEB731964F01B9017B
:10357000D60158968C9142DEB401F601808D29DE89
:10358000D6015496ED91FC915597608571858285A1
:1035900093850E941A48E62FF0E0EE0FFF1FE950D6
:1035A000FE4FE080F180F6010689178940E05FEF69
:1035B0006FEF7FEFC8010E948C0D47E050E060E0A4
:1035C00076E2C8010E948C0D40E050E060E076E2B7
:1035D000D60156968D919C9157970E948C0D24E0B0
:1035E000722E4FEF5FEF6FEF74E0F60186899789D7
:1035F0000E948C0DD60156960D911C91579748E26A
:103600005FEF6FEF7FEFC8010E948C0D40E050E844
:1036100060E070E0C8010E948C0D40E050E860E07E
:1036200070E0C8010E948C0DF6010689178947E2F7
:103630005FEF6FEF7FEFC8010E948C0D40E050E01C
:10364000BA01C8010E948C0D40E050E060EF7FEFAE
:10365000C8010E948C0D4AE25FEF6FEF7FEFD60149
:1036600056968D919C9157970E948C0D41E050E0A9
:1036700060E07FE1F601868997890E948C0D40E821
:1036800050E060E079EAD60156968D919C9157976B
:103690000E948C0D40E050E060E071E2F601868906
:1036A00097890E948C0D46E25FEF6FEF7FEFD601A6
:1036B00056968D919C9157970E948C0D4AE25FEF30
:1036C0006FEF7FEFF601868997890E948C0D00E0ED
:1036D00012E020E042E250E060EF70E0D601569642
:1036E0008D919C915797D3DDD6015496ED91FC9125
:1036F000559764857585868597850E941A481B01B4
:103700002C01F601068917894EE25FEF6FEF7FEF1C
:10371000C8010E948C0D4CE651E06AE570E0C801DA
:103720000E948C0D4FE150E060E076E0C8010E94FD
:103730008C0DB201A101C8010E948C0D3AEBE32E61
:1037400031E0F32E00E016E02AE142E750E06CE6BB
:1037500071E0D60156968D919C91579798DD4EEB6E
:10376000E42E41E0F42E00E014E02BE14FEF50E0B6
:103770006AE070E0F6018689978989DD52ECE52ED2
:1037800051E0F52E2BE14DEE50E064E070E0D60103
:1037900056968D919C9157977ADDD6015496ED916E
:1037A000FC91559787898F9386898F9385898F930D
:1037B00084898F9306EC11E01F930F937F921F92E1
:1037C0006AE1662E6F921F928FEF8F93B1E0BF93E5
:1037D00079E0F72EFF92F60187898F9386898F9380
:1037E0000E944A10D6015496ED91FC915597838121
:1037F0008F9382818F9381818F9380818F931F9389
:103800000F937F921F926F921F928DEE8F93B1E074
:10381000BF93FF92F60187898F9386898F930E94C9
:103820004A1049815F81688574E0D60156968D9172
:103830009C9157970E948C0DD6015496ED91FC9166
:10384000559764897589868997890E941A481B0152
:103850002C01F601068917894FE05FEF6FEF7FEFCC
:10386000C8010E948C0D42E350E069EF70E0C8018E
:103870000E948C0D48EC50E06CE070E0C8010E94A2
:103880008C0DA10160E070E0BA015527442751601A
:10389000C8010E948C0D4AEF50E060E070E0C80162
:1038A0000E948C0D4C815D816E8174E0D60156962C
:1038B0008D919C9157970E948C0DD6015496ED9155
:1038C000FC91559760817181828193810E941A4891
:1038D0001B012C01F601068917894FE05FEF6FEF9E
:1038E0007FEFC8010E948C0D42E350E065EE70E06E
:1038F000C8010E948C0D48EC50E06CE070E0C801FB
:103900000E948C0DA10160E070E0BA0155274427A8
:103910005160C8010E948C0D44ED50E060E070E001
:10392000C8010E948C0D4FEF5FEF60E074E0D6019C
:1039300056968D919C9157970E948C0DD601549666
:10394000ED91FC91559764817581868197810E94E4
:103950001A481B012C01F601068917894EE25FEF18
:103960006FEF7FEFC8010E948C0D4CE850E06AE5D4
:1039700070E0C8010E948C0D49E150E060E07CE0FD
:10398000C8010E948C0DB201A101C8010E948C0DDA
:103990004D855C856B8574E0D60156968D919C9122
:1039A00057970E948C0D49E050E060E07FE1F601FE
:1039B000868997890E948C0D40E050EE6DEA78EA86
:1039C000D60156968D919C9157970E948C0D40E0A0
:1039D00050E76FEE7EEAF601868997890E948C0D8A
:1039E00040E050E060E071E2D60156968D919C91E6
:1039F00057970E948C0D48895F856E8574E0F601AB
:103A0000868997890E948C0DADECEA2EA1E0FA2EF2
:103A100000E016E02BE14BEE50E06EE571E0D601E0
:103A200056968D919C91579732DC49895A816A89C3
:103A300074E0F601868997890E948C0D49E050E078
:103A400060E07FE1D60156968D919C9157970E9438
:103A50008C0D40E050E76FEA78EAF6018689978995
:103A60000E948C0D40E050E061EF7EEAD601569650
:103A70008D919C9157970E948C0D40E050E060E042
:103A800071E2F601868997890E948C0D4A855985D5
:103A90006B8174E0D60156968D919C9157970E9448
:103AA0008C0DB0EDEB2EB1E0FB2E2BE144E051E0AC
:103AB0006EE571E0F60186899789E9DB4FEF5FEFEC
:103AC0006FEF74E0D60156968D919C9157970E94A6
:103AD0008C0DD6015496ED91FC91559787A18F934B
:103AE00086A18F9385A18F9384A18F9383ED91E01D
:103AF0009F938F937F921F926F921F928BEE8F9363
:103B0000B1E0BF9316E81F93F60187898F938689EA
:103B10008F930E944A102DB73EB7235D3F4F0FB6DB
:103B2000F8943EBF0FBE2DBFD6015496ED91FC9187
:103B3000559783A18F9382A18F9381A18F9380A1A9
:103B40008F938CED91E09F938F937F921F926F9252
:103B5000B1E0BF937F92BF931F93F60187898F9344
:103B600086898F930E944A102DB73EB7215F3F4F41
:103B70000FB6F8943EBF0FBE2DBFD60158968C915C
:103B80005897863009F486C040E050E06FEF74E04B
:103B900056968D919C9157970E948C0D49E050E06C
:103BA00060E07FE1F601868997890E948C0D40E0F4
:103BB00050E867E070E8D60156968D919C91579732
:103BC0000E948C0D40E050E86CE47FE9F6018689A4
:103BD00097890E948C0D40E050E060E071E2D601D0
:103BE00056968D919C9157970E948C0D40E050E025
:103BF00060E074E0F601868997890E948C0D49E0A7
:103C000050E060E07FE1D60156968D919C915797E8
:103C10000E948C0D40E050E268E471E8F60186896C
:103C200097890E948C0D40E050EE6BE07EE9D60152
:103C300056968D919C9157970E948C0D40E050E0D4
:103C400060E071E2F601868997890E948C0D40E060
:103C50005FEF6FEF74E0D60156968D919C91579768
:103C60000E948C0D740100E016E02DE14FE850E059
:103C70006DE770E0F6018689978909DB75012BE114
:103C80004AEA50E06DE770E0D60156968D919C911E
:103C90005797FDDAF601818D882309F47DC040E055
:103CA00050E06FEF74E0868997890E948C0D49E09F
:103CB00050E060E07FE1D60156968D919C91579738
:103CC0000E948C0D40E050E060E070E8F6018689CB
:103CD00097890E948C0D40E050E263E079E9D601BB
:103CE00056968D919C9157970E948C0D40E050E024
:103CF00060E071E2F601868997890E948C0D40E0B0
:103D000050E060E074E0D60156968D919C915797F3
:103D10000E948C0D49E050E060E07FE1F601868969
:103D200097890E948C0D40E050E560EA70E8D6016A
:103D300056968D919C9157970E948C0D40E050EDC6
:103D400062E678E9F601868997890E948C0D40E049
:103D500050E060E071E2D60156968D919C915797A4
:103D60000E948C0D40E05FEF6FEF74E0F6018689F2
:103D700097890E948C0D83EEE82E81E0F82E00E0FA
:103D800016E02EE149E150E064E670E0D601569677
:103D90008D919C9157977BDA4CE95CE96CE974E072
:103DA000F601868997890E948C0D49E050E060E019
:103DB0007FE1D60156968D919C9157970E948C0D6C
:103DC00040E050EC6DE070E8F601868997890E942A
:103DD0008C0D40E050EC6DE07CEBD60156968D9159
:103DE0009C9157970E948C0D40E050E060E071E29A
:103DF000F601868997890E948C0DD60156960D9101
:103E00001C91579740E050E0BA01C8010E948C0D08
:103E100041E05FEF6FEF7FEFC8010E948C0DD6018C
:103E20005696ED91FC9157978181811121C193851F
:103E30008485289820E92EBD00000DB407FEFDCF33
:103E40002EB524E22EBD00000DB407FEFDCF2EB529
:103E500028EE2EBD00000DB407FEFDCF2EB59EBD91
:103E600000000DB407FEFDCF9EB58EBD00000DB461
:103E700007FEFDCF8EB5289A64EE54E240E1289803
:103E80004EBD00000DB407FEFDCF8EB55EBD000037
:103E90000DB407FEFDCF8EB56EBD00000DB407FE5C
:103EA000FDCF8EB51EBC00000DB407FEFDCF8EB554
:103EB0001EBC00000DB407FEFDCF3EB51EBC0000C9
:103EC0000DB407FEFDCF2EB5289A832F922F2385A0
:103ED00034852817390719F08F3F9F4081F6EB8909
:103EE000FC890FB6F894FEBF0FBEEDBF64960FB607
:103EF000F894DEBF0FBECDBFDF91CF911F910F9120
:103F0000FF90EF90DF90CF90BF90AF909F908F90F9
:103F10007F906F905F904F903F902F90089520E09A
:103F200030E040E751E4C501B4010E94AE47F6011C
:103F300087FD95C0F385FB87D6011C96BC91BC8795
:103F4000F601F585FD87D6015196BC91BE87F60135
:103F5000F289FF87D6015396BC91B88BE5CA20E061
:103F600030E040E451E4C501B4010E94AE47D601FF
:103F700087FD6BC01B96BC91BA8BF601F485FA8362
:103F8000D6011D96BC91B98BF601F189FB83D60150
:103F90005296BC91B987F601F389FA87A1CA20E04D
:103FA00030E04DE453E4C501B4010E94F84818160E
:103FB000BCF5D6011596BC91BE83F601F681FD8352
:103FC000D6011796BC91BC8367CA20E030E042E579
:103FD00053E4C501B4010E94F84818165CF4F601D8
:103FE000F581F887D6011696BC91BF83F601F7815B
:103FF000F98338CA20E030E048EC52E4C501B4014E
:104000000E94AE4787FF74C0D6011896BC91B8874E
:10401000F601F185FF83D6011A96BC91B98322CAB5
:1040200020E030E048EC52E4C501B4010E94AE4704
:1040300087FF52C0F601F085FE83D6011996BC9128
:10404000BD83F601F285FC8327CA1596BC91BA8B15
:10405000F601F681FA83D6011796BC9194CFF581CB
:10406000FB87D6011696BC91BC87F601F7816ACF13
:10407000289A83859485289820E92EBD00000DB4E8
:1040800007FEFDCF2EB524E22EBD00000DB407FEC5
:10409000FDCF2EB528EE2EBD00000DB407FEFDCFDE
:1040A0002EB58EBD00000DB407FEFDCF2EB59EBD12
:1040B00000000DB407FEFDCF8EB51EBC00000DB490
:1040C00007FEFDCF8EB51EBC00000DB407FEFDCF70
:1040D0008EB5289A1182ABCED6011B96BC91BE83B9
:1040E000F601F485FD83D6011D96BC91BC83D4C92D
:1040F000F601F385F887D6011C96BC91BF83F601C3
:10410000F585F983AFC9089508950E943637EAE727
:10411000F0E085E0808380E480937C008081886883
:10412000808308950C94524680913D0490913E0402
:10413000892B11F080E0089570933E0460933D0454
:1041400040933C044F70406440937C0080917A001F
:10415000806480937A0081E0089581E020913D049D
:1041600030913E04232B09F080E00895CF93DF9334
:1041700000D0CDB7DEB780913D0490913E0400970A
:10418000E1F02091780030E03A8329834091790072
:10419000342B3A832983DC01ED91FC910480F58175
:1041A000E02D40913C04BE016F5F7F4F0995109256
:1041B0003E0410923D0410923C040F900F90DF914A
:1041C000CF910895FC01868D882361F1878D882326
:1041D00059F180A1882351F181A1882349F182A15D
:1041E000882341F183A1882339F184A1882331F107
:1041F00085A1882329F186A1882321F187A188231D
:1042000019F180A5882311F181A5882309F182A5E0
:10421000882301F183A58823F9F084A58823F1F090
:104220008FE0089580E0089581E0089582E0089588
:1042300083E0089584E0089585E0089586E0089578
:1042400087E0089588E0089589E008958AE0089558
:104250008BE008958CE008958DE008958EE0089538
:104260009C0181E08093D8001092DE001092DF0064
:1042700080EB8093DB001092EC00613009F484C184
:1042800008F479C1623009F474C1633049F48EE0F6
:104290008093E2008CE08093E30087E38093E40066
:1042A0001092E5001092ED001092EE001092EF00D7
:1042B0001092F0001092F1001092F2001092F300B0
:1042C0001092F4001092F5001092F6001092F70090
:1042D00080E18093ED001092EE001092EF001092BA
:1042E000F0001092F1001092F2001092F300109280
:1042F000F4001092F5001092F6001092F70080E2A0
:104300008093ED001092EE001092EF001092F000FA
:104310001092F1001092F2001092F3001092F4004B
:104320001092F5001092F6001092F70080E380934F
:10433000ED001092EE001092EF001092F00010923B
:10434000F1001092F2001092F3001092F40010921B
:10435000F5001092F6001092F70080E48093ED00D3
:104360001092EE001092EF001092F0001092F10007
:104370001092F2001092F3001092F4001092F500E7
:104380001092F6001092F70080E58093ED001092F5
:10439000EE001092EF001092F0001092F1001092D7
:1043A000F2001092F3001092F4001092F5001092B7
:1043B000F6001092F70080E68093ED001092EE0078
:1043C0001092EF001092F0001092F1001092F200A3
:1043D0001092F3001092F4001092F5001092F60083
:1043E0001092F70080E78093ED001092EE0010929B
:1043F000EF001092F0001092F1001092F200109273
:10440000F3001092F4001092F5001092F600109252
:10441000F70080E88093ED001092EE001092EF001C
:104420001092F0001092F1001092F2001092F3003E
:104430001092F4001092F5001092F6001092F7001E
:1044400080E98093ED001092EE001092EF00109240
:10445000F0001092F1001092F2001092F30010920E
:10446000F4001092F5001092F6001092F70080EA26
:104470008093ED001092EE001092EF001092F00089
:104480001092F1001092F2001092F3001092F400DA
:104490001092F5001092F6001092F70080EB8093D6
:1044A000ED001092EE001092EF001092F0001092CA
:1044B000F1001092F2001092F3001092F4001092AA
:1044C000F5001092F6001092F70080EC8093ED005A
:1044D0001092EE001092EF001092F0001092F10096
:1044E0001092F2001092F3001092F4001092F50076
:1044F0001092F6001092F70080ED8093ED0010927C
:10450000EE001092EF001092F0001092F100109265
:10451000F2001092F3001092F4001092F500109245
:10452000F6001092F70080EE8093ED001092EE00FE
:104530001092EF001092F0001092F1001092F20031
:104540001092F3001092F4001092F5001092F60011
:104550001092F7008091D80082608093D8009091EB
:10456000D90092FFFCCFF901E051FF4F81E0808339
:10457000089586E08DCE1092E2008CE08093E300F7
:1045800086E38093E4008CCE82E082CE4F3080F4CC
:1045900050E0440F551FFC01E40FF51F808191810D
:1045A000892B11F0222321F07183608381E008952B
:1045B00080E00895FC01E051FF4F2081222361F04B
:1045C0005091ED00E42FF0E0DC01AE0FBF1F5E96CE
:1045D0003C91313019F020E0822F08954F30D8F708
:1045E0004295407F4093ED00DF01AA0FBB1FAA0F49
:1045F000BB1FAA0FBB1FAE1BBF0BA80FB91FD396C3
:104600008C91D397882361F090E0D396FB01E90F5A
:10461000F11D30813093FA009F5F3C919317B0F306
:104620008091EF008F738093EF008091EF008064A2
:104630008093EF005093ED00822F08959F92AF92E8
:10464000BF92CF92DF92EF92FF920F931F93CF937F
:10465000DF93FC01E051FF4F3081332361F0C22F23
:10466000D0E07C01EC0EFD1ED7015E96EC915E97CA
:10467000EE2371F030E0832FDF91CF911F910F91E6
:10468000FF90EF90DF90CF90BF90AF909F900895F4
:10469000E2E05E96EC936E01CC0CDD1CCC0CDD1CD4
:1046A000CC0CDD1C86010C1B1D0B5C01A00EB11E89
:1046B000D5019D96E7E09E2EFB0101900D929A9404
:1046C000E1F7BE01660F771FDB01AC0FBD1FAA0F1C
:1046D000BB1FA80FB91FAA56BF4FF6E09F2EFA01C5
:1046E00001900D929A94E1F74091ED00522F52956E
:1046F000507F5093ED005091EF005F735093EF00A7
:104700001092EE001092EF001092F0001092F10063
:104710001092F2001092F3001092F4001092F50043
:104720001092F6001092F700F50152A9035D1F4F99
:10473000FC01E00FF11F5111B6C0A18150815695C7
:1047400056955695B0E2AB9F500D11245093F3004F
:1047500050815295550F507E5093F2005091EF00CA
:104760005F7E5093EF00F601EC1BFD0BE80FF91F85
:1047700051A9552309F4CEC05091F00054605093D4
:10478000F000A091EF00F601EC1BFD0BE80FF91F04
:1047900053A95A2B5093EF00F701568D513009F46D
:1047A000D3C008F4BDC0523009F07AC0FB01EC0F51
:1047B000FD1FEE0FFF1FE80FF91FE556FF4F508159
:1047C0005111D4C05091F4005E7F5093F400FB016E
:1047D000EC0FFD1FEE0FFF1FE80FF91FE656FF4F0E
:1047E0005081552309F4DAC05091F400546050937D
:1047F000F400CC1ADD0AFC01EC0DFD1D52A9FB01F1
:10480000EC0FFD1FEE0FFF1FEA56FF4FE80FF91FD9
:10481000552309F4B1C08381982F990F990F990FEF
:104820008281829586958770890F8093F7008281B7
:10483000982F990F990F990F81818295869587708E
:10484000890F8093F6008181982F990F990F990F06
:104850008081829586958770890F8093F50080818D
:10486000880F880F880F8093F4005091DE0081E05C
:1048700090E002C0880F991F2A95E2F7852B80935C
:10488000DE008091DF00892B8093DF008091EF00B4
:104890008F738093EF008091EF0080688093EF002A
:1048A0004093ED00E8CE5381A52FAA0FAA0FAA0FBF
:1048B00052815295569557705A0F5093F30052817A
:1048C000A52FAA0FAA0FAA0F51815295569557707E
:1048D0005A0F5093F2005181A52FAA0FAA0FAA0FC9
:1048E00050815295569557705A0F5093F100508150
:1048F000550F550F550F5093F0005091EF00506138
:104900005093EF00F601EC1BFD0BE80FF91F51A9C6
:10491000511132CF5091F0005B7F5093F00031CFB6
:104920005091DE0081E090E002C0880F991F2A9527
:10493000E2F7809585238093DE008091DF009095DB
:1049400089238093DF00ACCF5091DE0081E090E0BE
:1049500002C0880F991F2A95E2F7852B8093DE000D
:104960008091DF00892B8093DF009ACF5091F40073
:1049700051605093F4002BCF91818081869586956C
:10498000869550E2959F800D11248093F7008081D9
:104990008295880F807E8093F60067CF5091F40057
:1049A0005B7F5093F40025CFAF92BF92CF92DF92FE
:1049B000EF92FF920F931F93CF93DF939C01DC0143
:1049C000A051BF4F8C91882351F0C42FD0E08901B2
:1049D0000C0F1D1FF801968D992361F080E0DF9187
:1049E000CF911F910F91FF90EF90DF90CF90BF90EC
:1049F000AF90089591E0968F7E01EE0CFF1CEE0CB7
:104A0000FF1CEE0CFF1C6701CC1ADD0A5901AC0C2F
:104A1000BD1CD5019D9697E0FB0101900D929A95E2
:104A2000E1F79091ED00542F5295507F5093ED0097
:104A30005091EF005F735093EF001092EE001092D0
:104A4000EF001092F0001092F1001092F20010921C
:104A5000F3001092F4001092F5001092F6001092FC
:104A6000F700F50152A9F601BD96E20FF31F5111AF
:104A7000B9C06181508156955695569570E2679FF1
:104A8000500D11245093F30050815295550F507ED4
:104A90005093F2005091EF005F7E5093EF00F701CA
:104AA000EC1BFD0BE20FF31F51A9552309F4D1C0F4
:104AB0005091F00054605093F0006091EF00F701C6
:104AC000EC1BFD0BE20FF31F53A9562B5093EF0085
:104AD000F801568D513009F4D6C008F4C0C05230E8
:104AE00009F07DC0FE01EE0FFF1FDF01AC0FBD1FFF
:104AF000AA0FBB1FA20FB31FA556BF4F5C91511148
:104B0000D4C05091F4005E7F5093F400DF01AC0FED
:104B1000BD1FAA0FBB1FA20FB31FA656BF4F5C91AC
:104B2000552309F4DAC05091F40054605093F40016
:104B3000EC1AFD0AD901AE0DBF1DD2965C91EC0FA7
:104B4000FD1FEE0FFF1FEA56FF4FE20FF31F552325
:104B500009F4B1C02381322F330F330F330F228179
:104B6000229526952770230F2093F7002281322F5C
:104B7000330F330F330F2181229526952770230F92
:104B80002093F6002181322F330F330F330F208112
:104B9000229526952770230F2093F5002081220F60
:104BA000220F220F2093F4005091DE0021E030E02C
:104BB00002C0220F331F4A95E2F7252B2093DE0017
:104BC0002091DF00232B2093DF002091EF002F7333
:104BD0002093EF002091EF0020682093EF00909346
:104BE000ED00FDCE5381652F660F660F660F528173
:104BF000529556955770560F5093F3005281652F7A
:104C0000660F660F660F5181529556955770560F75
:104C10005093F2005181652F660F660F660F508129
:104C2000529556955770560F5093F1005081550F7D
:104C3000550F550F5093F0005091EF005061509375
:104C4000EF00F701EC1BFD0BE20FF31F51A951110F
:104C50002FCF5091F0005B7F5093F0002ECF5091FA
:104C6000DE0021E030E002C0220F331F4A95E2F758
:104C7000209525232093DE002091DF00309523230B
:104C80002093DF00ACCF5091DE0021E030E002C085
:104C9000220F331F4A95E2F7252B2093DE00209147
:104CA000DF00232B2093DF009ACF5091F400516056
:104CB0005093F4002BCF318120812695269526959F
:104CC00050E2359F200D11242093F700208122957A
:104CD000220F207E2093F60067CF5091F4005B7F77
:104CE0005093F40025CF6F927F928F929F92AF9254
:104CF000BF92CF92DF92EF92FF920F931F93CF93C9
:104D0000DF93CDB7DEB72F970FB6F894DEBF0FBE97
:104D1000CDBF6C01E090ED00AA24A394B12C90913A
:104D2000E0008091E100892B09F448C08091E00007
:104D300080FD19C08091E00081FD57C08091E000A6
:104D400082FDE3C18091E00083FD1CC28091E00000
:104D500084FD56C28091E00085FF5DC205E010E051
:104D6000E0E5FE2E03C000E010E0F12CF092ED0033
:104D70009091EE00892F807E91F24801880C991C59
:104D8000F601E80DF91D2081318196FF33C0211510
:104D9000310559F0D901ED91FC910680F781E02DA4
:104DA000B1E1EE30FB0709F01BC21092EE009091CA
:104DB000E0008091E100892B09F0B8CFE092ED008E
:104DC0002F960FB6F894DEBF0FBECDBFDF91CF9107
:104DD0001F910F91FF90EF90DF90CF90BF90AF9019
:104DE0009F908F907F906F90089501E010E080E198
:104DF000F82EBCCF95FD02C087FF91CF8091EF00C8
:104E00008F703801660C771C660C771C660C771C5B
:104E1000F301E01BF10BEC0DFD1DBD9697E0DE01EB
:104E2000199601900D929A95E1F7882351F190918E
:104E3000FA009983813029F19091FA009A838230A7
:104E400001F19091FA009B838330D9F09091FA00A0
:104E50009C838430B1F09091FA009D83853089F075
:104E60009091FA009E83863061F09091FA009F83C2
:104E7000873039F09091FA009887883011F080914E
:104E8000FA008F878091F00082FB882780F98D8758
:104E90008E85882309F43EC18091F30090E09595BA
:104EA000879595958795959587958C878091F20044
:104EB0009091F30086958695869540E2949F800DAB
:104EC00011248B878091F1009091F2008695869550
:104ED0008695A0E29A9F800D11248A878091F00028
:104EE0009091F100869586958695B0E29B9F800D06
:104EF000112489872115310559F0D901ED91FC91D3
:104F00000480F581E02DB1E1ED30FB0709F0ACC183
:104F10001092EE008091ED00F092ED009091EF0084
:104F20009F739093EF001092EE001092EF0010929A
:104F3000F0001092F1001092F2001092F300109223
:104F4000F4001092F5001092F6001092F700F301B1
:104F5000E01BF10BD601AE0FBF1FD2969C91BD9600
:104F6000EC0DFD1D992309F4F6C09381292F220F22
:104F7000220F220F9281929596959770920F90939F
:104F8000F3009281292F220F220F220F91819295F7
:104F900096959770920F9093F2009181292F220F8E
:104FA000220F220F9081929596959770920F909371
:104FB000F1009081990F990F990F9093F0009091C3
:104FC000EF0090619093EF00F301E01BF10BEC0D0B
:104FD000FD1D91A9992309F4B8C09091F000946047
:104FE0009093F0002091EF00F301E01BF10BEC0D2A
:104FF000FD1D93A9922B9093EF00F601E00FF11F96
:10500000968D913009F4D9C008F4C1C0923009F0EE
:1050100079C0F401E00FF11FEE0FFF1FEC0DFD1D35
:10502000E556FF4F90819111F0C09091F4009E7F62
:105030009093F400F401E00FF11FEE0FFF1FEC0D51
:10504000FD1DE656FF4F9081992309F428C19091E8
:10505000F40094609093F400601A710AF601E60D72
:10506000F71D92A9F401E00FF11FEE0FFF1FEA56A2
:10507000FF4FEC0DFD1D992309F4FFC09381292FEB
:10508000220F220F220F9281929596959770920F80
:105090009093F7009281292F220F220F220F9181E6
:1050A000929596959770920F9093F6009181292F83
:1050B000220F220F220F9081929596959770920F52
:1050C0009093F5009081990F990F990F9093F400A8
:1050D0009091DE00950102C0220F331F0A95E2F77E
:1050E000922B9093DE009091DF00932B9093DF0042
:1050F0009091EF009F739093EF009091EF00906874
:105100009093EF008093ED000ACE02E010E0B0E251
:10511000FB2E2CCE8091F30090E095958795959588
:1051200087959595879595958795959587958A8780
:105130009091F2008091F300929596959770880F68
:10514000880F880F890F8987D5CE9091F0009B7FBB
:105150009093F00047CF21819081969596959695F2
:1051600030E2239F900D11249093F300908192954B
:10517000990F907E9093F2009091EF009F7E909314
:10518000EF0022CF03E010E0A0E3FA2EEFCD9091E4
:10519000DE00950102C0220F331F0A95E2F7209529
:1051A00092239093DE009091DF00232F209592238D
:1051B0009093DF008093ED00B2CD9091DE009501D9
:1051C00002C0220F331F0A95E2F7922B9093DE0064
:1051D0009091DF00932B9093DF008093ED009FCDA3
:1051E000B801660F771F660F771F660F771F601B6A
:1051F000710B635D7F4F6C0D7D1DC9010995D5CD88
:1052000004E010E0F0E4FF2EB1CD9091F400916045
:105210009093F4000FCF8091E00086FD46C080910E
:10522000E00087FD51C08091E10080FD43C0809186
:10523000E10081FD44C08091E10082FD4AC080917F
:10524000E10083FD4BC08091E10084FD51C080915D
:10525000E10085FD48C08091E10086FFAFCD0EE002
:1052600010E090EEF92E82CDAE014F5F5F4FBE0190
:10527000675F7F4FC90109954BCE2181908196953B
:105280009695969540E2249F900D11249093F700F7
:1052900090819295990F907E9093F60019CF9091FE
:1052A000F4009B7F9093F400D7CE06E010E070E608
:1052B000F72E5CCD08E010E050E8F52E57CD09E060
:1052C00010E040E9F42E52CD07E010E060E7F62E42
:1052D0004DCD0AE010E030EAF32E48CD0BE010E0AF
:1052E00020EBF22E43CD0DE010E080EDF82E3ECD08
:1052F0000CE010E090ECF92E39CD1F920F920FB612
:105300000F9211240BB60F922F933F934F935F93FD
:105310006F937F938F939F93AF93BF93EF93FF937D
:10532000809143038823B1F08BE493E0DCDCFF91B0
:10533000EF91BF91AF919F918F917F916F915F910D
:105340004F913F912F910F900BBE0F900FBE0F907A
:105350001F90189583E493E00E945346892B21F314
:1053600010923B0483E493E00E945C46DDCFCF9330
:10537000DF93AFE3B4E01C9212961C921E92119739
:1053800014961C921E9213971092B3061092B206B6
:10539000EAE7F0E097E09083CCE7D0E080E4888310
:1053A00020812868208315961C92159717961C92C9
:1053B0001E92169719961C921E9218971092B30679
:1053C0001092B206908388832081286820831A96E1
:1053D0001C921A971C961C921E921B971E961C924A
:1053E0001E921D971092B3061092B2069083888386
:1053F000808188688083DF91CF91089521E0DC016E
:1054000095962C93E42FF0E0DB012D913C9133969F
:10541000EE0FFF1FE80FF91F3183208308950497D3
:1054200021E0DC0195962C93E42FF0E0DB012D9137
:105430003C913396EE0FFF1FE80FF91F3183208355
:1054400008950895089508950C94524604970C9475
:1054500052469F92AF92BF92CF92DF92EF92FF920D
:105460000F931F93CF93DF93EC016C0184E0C80E80
:10547000D11C07E612E029E0A22E22E0B22E1DA2E6
:10548000D801FD908D0180914E04882309F4F8C065
:105490004F2DB60186E594E00E9494208DA18823CB
:1054A000E9F3B2E00A361B0751F75E016E017E0197
:1054B00000E010E0F894F8013396EE0FFF1FEC0FB8
:1054C000FD1F60817181789480E090E00E944648E1
:1054D0002BEA3AEA4AEA52E40E94B2479B01AC0145
:1054E00060E070E080E491E40E9449470E941A481D
:1054F000962EEBE0E61710F48BE0982ED7011C9661
:105500008C91891509F43FC0F60181899289892B14
:1055100089F061E172E084E895E00E94A543D6013C
:105520005396ED91FC915497692D51968D919C91D4
:1055300052970995F701948661E17AE084E895E055
:105540000E94E54066E272E084E895E00E940E4128
:105550006CE07AE084E895E00E94E5404AE050E0A3
:105560006DE570E084E895E00E94F64169EE79E02F
:1055700084E895E00E94E5404AE050E0692D84E827
:1055800095E00E94FD430F5F1F4FFFEFEF1AFF0AE8
:1055900084E0C80ED11C0330110509F08BCF0AE658
:1055A00012E07E01A2E0EA0EF11C6E01D801ED913D
:1055B000FC911197908112968C918923D1E009F486
:1055C000D0E0F6018785D81709F442C0D5015D9671
:1055D0008D919C915E97892B89F063E372E084E85A
:1055E00095E00E94A543D5015F96ED91FC919097BF
:1055F0006D2F5D968D919C915E970995F601D787E9
:1056000060EE79E084E895E00E94E54066E272E0B1
:1056100084E895E00E940E416BED79E084E895E026
:105620000E94E5404AE050E06AE770E084E895E0D7
:105630000E94F64169EB79E084E895E00E94E5403C
:105640006D2F70E04AE050E084E895E00E94B94494
:105650000D5F1F4FFFEFCF1ADF0A84E0A80EB11CC9
:10566000EC14FD0409F0A2CFDF91CF911F910F91AF
:10567000FF90EF90DF90CF90BF90AF909F900895F4
:105680008EE494E00E945346892B09F401CF60E038
:1056900086E594E00E94813BB0925704A0925604A4
:1056A0008EE494E00E945C4681E29AE20E94130933
:1056B000EFCECF93DF930E94363760EB79E084E83A
:1056C00095E00E94E54066E272E084E895E00E9481
:1056D0000E416BEA79E084E895E00E94E5404AE0FB
:1056E00050E06AE870E084E895E00E94F64162EAE2
:1056F00079E084E895E00E94E5404AE050E063E00C
:1057000084E895E00E94564165E979E084E895E0F7
:105710000E94E5404AE050E06CE084E895E00E9499
:10572000564168E879E084E895E00E94E5404AE067
:1057300050E062E084E895E00E9456416FE779E02E
:1057400084E895E00E946943C9E0D2E006C086E59E
:1057500094E00E94AD20811121C080914E048111FE
:10576000F6CF8EE494E00E945346892B81F360E0EB
:1057700086E594E00E94813BD0935704C093560481
:105780008EE494E00E945C4681E29AE20E94130952
:1057900086E594E00E94AD208823F9F2DF91CF9155
:1057A0000895CF93DF9350E0440F551F440F551FCA
:1057B000FC01E40FF51F258D368D232B81F4FC01B0
:1057C000E40FF51FEB0188819981AA81BB81858F48
:1057D000968FA78FB0A380E0DF91CF9108958FEFD0
:1057E000DF91CF910895CF93DF9350E0440F551F81
:1057F000440F551FFC01E40FF51F21893289232B2B
:1058000081F4FC01E40FF51FEB0188819981AA81E5
:10581000BB81818B928BA38BB48B80E0DF91CF9186
:1058200008958FEFDF91CF91089508950895089519
:1058300008950895089521E0FC01258B08950497AB
:1058400021E0FC01258B08950895DC01ED91FC9188
:105850000688F789E02D0994DC01ED91FC91008C1C
:10586000F18DE02D0994DC01ED91FC910088F18926
:10587000E02D0994DC01ED91FC910288F389E02D83
:105880000994DC01ED91FC910488F589E02D0994DF
:10589000EF92FF920F931F93CF93DF93CDB7DEB7B5
:1058A00028970FB6F894DEBF0FBECDBFDC01589627
:1058B0002C91222369F028960FB6F894DEBF0FBE14
:1058C000CDBFDF91CF911F910F91FF90EF90089581
:1058D0008C01FE0131967F0188E0DF011D928A95DF
:1058E000E9F780915B048823D1F080916F048A836B
:1058F000809170048B83809171048C8386B1809534
:105900008983F801178980914303882309F427C10B
:10591000412FB7018BE493E00E94DA22CCCF8BE5D4
:1059200094E00E945346892B09F454C062E383E655
:1059300094E00E94813B83E592E09093640480931D
:10594000630481E692E0909368048093670486E0A4
:10595000E9E6F4E0DF011D928A95E9F710926F0401
:1059600010927004109271041092730410927204D9
:1059700010927504109274041092770410927604B9
:10598000109279041092780410927B0410927A0499
:1059900010927D0410927C0410927F0410927E0479
:1059A0001092810410928004109283041092820459
:1059B0001092850410928404109287041092860439
:1059C000109288048BE594E00E945C4684E29CE29D
:1059D0000E94130980915B0490916F049A83811156
:1059E000CCC08BE594E00E945346892B09F454C047
:1059F00062E383E694E00E94813B83E592E090932A
:105A000064048093630481E692E090936804809339
:105A1000670486E0E9E6F4E0DF011D928A95E9F784
:105A200010926F041092700410927104109273041B
:105A300010927204109275041092740410927704FC
:105A400010927604109279041092780410927B04DC
:105A500010927A0410927D0410927C0410927F04BC
:105A600010927E041092810410928004109283049C
:105A7000109282041092850410928404109287047C
:105A800010928604109288048BE594E00E945C4694
:105A900084E29CE20E94130980915B04909170045F
:105AA0009B83811128CF8BE594E00E945346892B7C
:105AB00009F421CF62E383E694E00E94813B83E511
:105AC00092E0909364048093630481E692E0909363
:105AD00068048093670486E0E9E6F4E0DF011D9244
