:10000000E9C600000C94B80F0C94E90F0C941A1078
:100010000C944B100C947C100C94AD100C94DE10CE
:100020000C940F1106C700000C94421402C7000084
:1000300000C70000FEC60000FCC60000FAC60000B3
:10004000F8C600000C9440110C943A12F2C600005D
:10005000F0C600000C942F0BECC60000EAC60000AE
:10006000E8C600000C94FE11E4C60000E2C60000E1
:10007000E0C60000DEC60000DCC60000DAC60000F4
:100080000C946F0BD6C60000D4C60000D2C6000088
:10009000D0C600006E616E00696E66001000000040
:1000A0000800000000140000000800000000130019
:1000B000000008000000001200000008000000001E
:1000C000FFFFFFFF0000000000000000100800011B
:1000D0000000789CED5B2D74EA4A10AEAC44622BB4
:1000E00091482C125989AD445662AE4020108808C0
:1000F00004A6220281A84054C420222A1008042207
:1001000006118188A88840F49D3973E67C339B4DA5
:10011000805EDE7BB7B7D9116D379BDDCDFC7CF3FC
:10012000B3DBBB5F7735D554534D35D554534D357F
:10013000D554534D35FDA13458CE3FFE0E7A18DD0F
:10014000FD1A4D376F5534791D4DABB8D15BE8D1F1
:100150005563EF5FCAD6C05B7637F72FBE5EDE957C
:100160009D9B7B754F773C79ADFAAEEAAF72A9B132
:10017000FEFC2B5A94B324CE8FEB2DCA78319ADA39
:10018000B196EF9A9E37E52BC433E8856F36DF1EB4
:10019000BB633D3BF7E1EF7816E5D55F65DF3F4791
:1001A000ABDD392E7D8FD649D942CE8F1C66974A5A
:1001B000324FFCE3AA57291B2732F7BDAD2D3D9ED8
:1001C000D95D76C7E724AED7BC843AE9792E7D871E
:1001D000B6DA15F9D949F384C98EF573C2677FBEC3
:1001E00071AE0C640DA132990BB673AF9D8377AFDE
:1001F000F78179EC2CC3CC5D2F4F9E37D7C99CD7A4
:100200006E1E5C8F3079C53ACD83F466918F238F53
:10021000EF5572B0F430E299E71FC203CD4D9E69ED
:10022000B02C4A013C0803F42E5777BF962BFAAD49
:100230001DD3338B5A58C16AB69F13AE66D819FCCA
:100240009CA9C27F7746C17CDEA38B29406796318B
:10025000E438CC30AA1CA32EA78711CD14E5B262D6
:10026000773C9A326939C243A573F4CE3FA477B77D
:100270002F720B7220A219F155C48B74AE9F51FCE2
:10028000051D946796BBD8854896F460344D4EF4AE
:100290003B49DFE53256D4BDEC05FC92CC13AB1DD7
:1002A0003E89FAADF7BCCC6DAF8B2A40779E1F2BF1
:1002B000EB5165DEE61A629B797C178933FF6CB3DC
:1002C000C88111E05DFF587C0B72107BD53A82DF4C
:1002D0009903FDA3FCDD3C7C7E3E4DF8771B5F025D
:1002E00035D8E345398D1319B5427AA26D025CEE1B
:1002F0008ECFF1AD3BE637291A3F37D6620934B1CC
:10030000487A1CC798D8A33B0FB8C9FDA203FCAD1F
:10031000D260455FA756A865A3AD585A727A9A1065
:10032000E6425E4519F8340572101B825CFBC7DD9E
:10033000DEF2C5EA8FFCEEE25F18E85D900780AF61
:10034000E1677E2E5A9BF2F18D254D1276EDAF3886
:10035000D66FBDE7640EEDA1BF48032C8A7D7E8A6F
:1003600077151CF0EDBDCA935C4AEC0B45368365EE
:10037000516E5944F6062D851D08EFAC15E9263659
:10038000C092819C9393E8D0D384476AFD81CF7259
:100390003D6CB09527E99CDED03640BD36D78A72D9
:1003A0008971ACF517F9265119EFD74657C5CC4ED0
:1003B0003F075F8A64A5255FC87B240D70F926FB83
:1003C000D27B713D496FE1AF405C23F3764C3389BA
:1003D000FDD8088D1A553A9E2664C7B207F059D049
:1003E000C1A28F6EE24FD95E497B44476497822C4D
:1003F0005A7F60115656D404F529127918E139FB59
:100400008AF3D939F3CDE502EF4F7C98C5DC222A77
:10041000E8A755FEB52A3BE7F72C8E092EF15F328F
:100420008B1B3DF8F3C46B64CEDF271154B1D2406F
:10043000F8C9BDD025D1734187DEC2CFDBE404F912
:1004400074C788A7084D84EF822C323BE90FACB902
:1004500038277C8CCD1638B370D1D2D78A119CE85E
:10046000AC60AB9DC51D6F35DC9799F8A5255FC8BD
:10047000B3F35F2EE768078C03C00FAB81DDB14F8C
:10048000E6556853248A80F0868BA5FCBD4F131B6C
:1004900075CB2E041DCA2A14F0DF2C73A2A7C960E5
:1004A000493AE32297E80071A1B1E6DF05F7754B01
:1004B0004EB20F6B45AC277627CF9BCD9BFDA23C60
:1004C000D9BC152B563C6698094E966751C575AB3D
:1004D00050B52A3BB738AE6773B373377A90EAB03A
:1004E000FDAE6B644E6B42935D2C453EA589630067
:1004F000A0435976EEC6693E3ECABB5A072462F550
:1005000045946598C47A62FB88CBD6927C5659860E
:100510005268D617F8ADD747FE5A01EFD1FE258DA8
:1005200024C138809D6AAD288B4AABD0C625CECE7B
:10053000756CE5CEA4A33AD100177DCAB273374ECD
:10054000D3CD7D577B7EE1872FA22CC324D6936227
:1005500044EDC649452B2FC60C6EB31EFD56D9B9C6
:100560005FE32842A39FE7B2F3AF47F39C9D43E6C6
:1005700083A5E0DB6E9F9CA85232FFC0CC1283DDC6
:10058000FDA25EE81CCEA228B72EEEC467AF62AD16
:10059000E99CDE8325D1CCE257E399CC0B24D1989A
:1005A000F4F8DE58CB8ACC435F76EED30D578288C1
:1005B000F07D71BEF5E8452C29238BDB56C7CA4672
:1005C000896711DED94C049592CBD1C625CECE29B0
:1005D00003779FB46342CB32AF116CB5A6802C9ADF
:1005E000B9719A6E12F35BE21A4CB11F33687FB196
:1005F000790BB6B222EB896FB7F61B2C0A4A8EE64E
:1006000046F26E26A2D1E116D9B97ECF45F7CBB21C
:10061000F3CBD1C625F1CCF38FC6DAE67B9D348BC4
:10062000366F16EB93933C254E370FC52CD1DAC7A6
:10063000E33B46171B455896F86BB10A0833C8AA26
:100640009455EEF6E86709FAB8ECE66F5A7E9CA975
:10065000FA22206B7D1A1DACCCE9545C134E2DACF4
:10066000DEC81ABC47BDA28BEE363BB7BBEFA4BCBD
:100670004A6F61F757550B7489BFF9FB375F76EE08
:10068000F7885A7E829B3E8E593DD5D5E7AA937353
:10069000BDEAF9ECDCAF5FDCE45979BDCB37FA1287
:1006A000FA5BCECE393BB71603EEDBAF04BAB3C567
:1006B000FACF21DDF34B3C29AF40518397F07B5CAF
:1006C000DEA3F5BF3E2DBA54C7DCD1E7298B82EDFE
:1006D000DF401C1DB8554A3FF705DDD9E270A2681E
:1006E000C9BD31A34F9A7B8BF23B07F0AC9764E70F
:1006F0005A0F74D338D01DB7E3EA3B13B7386BAB4E
:10070000E9675018F41642E87D9AA017F6D01DA3A9
:1007100057D7BFD18BF32FCA0DA457FB4D8A4398EF
:1007200074CC19CF7CBBD07BC339BBDE1BEF229EC0
:10073000FD4CBAEEFE2388B2AFA277D0672E90A30D
:10074000CEBDA4E66EFD1CB08BAB3EDCB4E744DE50
:100750008F3B383A26D615645DE783E649CE418D56
:10076000AA45FAF6CCCF6AD7DE8C12423505B71906
:100770006CFC000BD39E0A9AA0BD12AC544B023500
:100780001D1D4BE34445D754741D04753E9CDAD8B7
:100790009C83EC9C6B0D6874266B7B9A07ED17931A
:1007A0001379E5FED177F6DF3F5A0FCA23D117E55B
:1007B00076EEF25A5E94EBF99353F360EF970C33B5
:1007C0005DF57267EA1F9B07375FB6E3A969BE5EF6
:1007D00043BF6F775A1380E25A1272CBCD464872EC
:1007E000A2623541D74EC0259CDAD868DCB57B1AA9
:1007F000399A8681D659D2228D66AB1D6150181464
:10080000794811978DD2A87A7CFF026E3CBE6B04AA
:100810004CE7E9DC7F8A1B6CE96C0A72CC133A6DF9
:10082000D23B9DBC624F511E06547BC4D33008039B
:100830007DE3926E2D76C7EE4918F87A1DE97D7E2C
:10084000CDEE2E436026CD21E4CBBA2EAF6BDCD0AB
:10085000745DFB83543893B2B5862C6AAC87999645
:100860005C632D372CB1C230D3BE076D34B5764EE4
:100870003B1B4DC10D7DF6D63F1296696D420B8331
:10088000286F85E0D7F366B0ECA4DA0BB64220EC13
:100890006A47678EFAF482B273AD7F83659ED09704
:1008A000D955FC2761E7E8167677190233E9136A10
:1008B000C470BA2E8FDAACAE4AE8D373488573158C
:1008C000370B8F671615D3F960A977B35C8DA6CF68
:1008D0001B3727E366356198D1CE745F6F81AFA572
:1008E0006CAF2C77A3BDC7333CCD223AD1B05112A7
:1008F00070A6933E4D34EA504DDCEA5F3C1B661A0D
:1009000019B8152BE7E5D4584B7EDB8E51E76CC741
:10091000D2ABABA3181B6CD1ABF3FBE5CAD7EB1F73
:100920004B755D21F4EAFAEFE3BBF44A05D7EE4DCF
:10093000CFCC5AE3F27DF2AAFD0ADD97B488DC0A37
:10094000B388B286A2A4A2DC6A429E50AD53A350E3
:100950003AD75E79B7B7B2C23C84001A9B07CBFB8B
:100960009730D0DA69B5AB1D6B0C208B7A18E93D56
:10097000BB3E86DB35D67D196632F9E37A8D32C807
:1009800018FEEBB8DEB57BE617ED089209B6748B5E
:10099000DBFACA4EFA30F29DFF50555BFF4DBADFCD
:1009A00049350AF16D31E1129D10146F95D13CADBE
:1009B0003039E92F2479B563A09CD52EDA6D2B84CC
:1009C00046ECF6ADD0469DAE8FE1F52F97F8A59891
:1009D000C904AF735E13FC19DEBF17D7BBBA438DD2
:1009E000221D8D8A83E56E1F6CB54FA1EF1F4D7DD3
:1009F000B222BFF0F88EB59E37AD9050CCBE8B9929
:100A0000DB716FE1AB90360FF1ACB1D6FA435A37D8
:100A10009A826B56BB0801E219384D08A7E723AC50
:100A200009B6EE6D846BAA70B7B0BBAF6678B78DB0
:100A3000EB5DDDA1166CB5CFA5592837D33A4AD264
:100A40007EDED8137FF942F218C088E4B45C6511E9
:100A50002C3BCA755C30CC064B9FE6F01A93578D41
:100A6000FAEECDABFE51EFA879E82D7494B9DBBB5B
:100A7000BBA318D0FD5F026DAFE7E8167677FBCA1F
:100A80000AD37571BDAB3B3FAB5D735FE2B6767762
:100A9000ABCA0AD335717D51777E562BFFCFEA2240
:100AA000E12EAA3D59FA5A2F305CCF7C4DEFD77713
:100AB000C14FE4FFEC7E1A696ED654534D350127C1
:100AC0006BFAB3E8AB7EF212E237F9BF54E81C963A
:100AD0004E0AEE5FF8BC7BF24AC4F5B3C6BAB17EEB
:100AE0007C27A2FAD76AB7DBEFF679D23CD019514E
:100AF000FF482743F30F3A3F2AFBEFD4BA5DD328D0
:100B00004767F9C433D46782AD543AD239F222AA86
:100B10001DFFDFD801048126C53368D2606935A97D
:100B20001D976952FFF813350992458595FE875741
:100B3000248B1399E4D48EAFA9B37F4F8226D18939
:100B4000A35F93E85C406B52B0852675D23F599302
:100B500048B22243BF64710B2FCAE98CF0FF96C7DD
:100B6000F725F68A5693F8DE965F939E37659A349A
:100B7000FFF8AA2669C9D259AB48368B44B29357BD
:100B8000A979CC3F366F7576F62792AB491C29417F
:100B900093F80C923489CE1245B24F93764CF556A9
:100BA000224816D5D661B65CFD9EBCFF01E1EA97EE
:100BB000A8040C000CF70BEE0BE90BE10BD90BD1E1
:100BC0000BC90BC90BC90BC90B496E76616C696403
:100BD000004D554C54492D38004D554C54492D3736
:100BE000004D554C54492D3600436F6465005468E0
:100BF000726F74746C65004272616B6542616C0067
:100C00005069740044656661756C74006A0C600C10
:100C1000560C4C0C440C3C0C340C2C0C240C240CAA
:100C2000240C240C496E76616C696400496E76610F
:100C30006C696400496E76616C696400496E766126
:100C40006C696400496E76616C696400434C4B20AA
:100C5000444956203000434C4B2044495620320032
:100C6000434C4B20444956203400434C4B204449CC
:100C700056203800CD0CC70CC10CBB0CAA0CA40C20
:100C80009C0C940C8C0C8C0C8C0C8C0C496E76612E
:100C90006C696400496E76616C696400496E7661C6
:100CA0006C6964003132304E6D003132304E6D204F
:100CB0007769746820526567656E003234304E6D16
:100CC000003136304E6D003132304E6D004D4320D4
:100CD0004F66660000407A10F35A00A0724E180961
:100CE0000010A5D4E80000E87648170000E40B5493
:100CF000020000CA9A3B000000E1F5050000809662
:100D00009800000040420F000000A0860100000093
:100D1000102700000000E80300000000640000004D
:100D200000000A00000000000100000000002C7616
:100D3000D888DC674F0823DFC1DFAE59E1B1B79631
:100D4000E5E3E453C63AE651997696E8E6C284268E
:100D5000EB898C9B62ED407C6FFCEFBC9C9F40F26A
:100D6000BAA56FA5F490055A2AF75C936B6CF967E6
:100D70006DC11BFCE0E40D47FEF520E6B500D0EDAB
:100D8000902E0300943577050080841E0800002013
:100D90004E0A000000C80C333333330F986E1283B1
:100DA0001141EF8D2114893BE65516CFFEE6DB1885
:100DB000D1844B381BF77C1D901DA4BBE42420324A
:100DC00084725E228100C9F124ECA1E53D27990CD3
:100DD0000214971411241FBECFEFD0E1DEBFCDBFA8
:100DE00011E0A0E0B1E0E6E1F2E500E00BBF02C0F7
:100DF00007900D92AC39B107D9F723E0ACE9B1E027
:100E000001C01D92AB35B207E1F71DE0C4EDDDE096
:100E100000E006C022970109FE010BBF0E943126A7
:100E2000CE3CD10780E00807A9F70E9408240C9463
:100E30000929E6C82F923F924F925F926F927F925C
:100E40008F929F92AF92BF92CF92DF92EF92FF92DA
:100E50000F931F93CF93DF93CDB7DEB763970FB692
:100E6000F894DEBF0FBECDBF7C011B016A01FC01FF
:100E700017821682838181FF66C3BE016F5F7F4F39
:100E80004B01F7019381F10193FD859193FF8191CE
:100E90001F01882309F453C3853239F493FD8591EA
:100EA00093FF81911F01853239F4B70190E00E94D0
:100EB000402856016501E5CF10E0512C20E020329A
:100EC000A0F48B3269F030F4803259F0833269F447
:100ED00020612CC08D3239F0803339F4216026C076
:100EE0002260246023C0286021C027FD27C030ED88
:100EF000380F3A3078F426FF06C0FAE01F9F300D15
:100F00001124132F13C06AE0569E300D1124532E66
:100F100020620CC08E3221F426FD11C3206406C06D
:100F20008C3611F4206802C0883641F4F10193FD3B
:100F3000859193FF81911F018111C1CF9BEB980F88
:100F4000933018F42061805E06C09BE9980F9330BF
:100F500008F0AAC12F7E26FF16E02F73722E853669
:100F600021F4F22FF0647F2E08C0863621F4622F20
:100F70006068762E02C01111115077FE07C01C3335
:100F800048F444244394410E27E00BC0183030F459
:100F9000212F06C027E04CE3442E03C027E017E0D2
:100FA000412C560174E0A70EB11CF60160817181DD
:100FB00082819381042DA4010E943A276C0109814A
:100FC00000FF02C003FF06C071FC07C072FC08C02E
:100FD000612C08C03DE2632E05C02BE2622E02C0E8
:100FE00090E2692E802F8C7099F1662011F084E0D8
:100FF00001C083E0851510F0512C0BC0581A73FC0A
:1010000008C0B70180E290E00E9440285A94C9F7D6
:10101000F3CF662029F0B701862D90E00E9440288A
:1010200003FD03C008E910E002C004E910E0F72D59
:10103000F0717F2EF8018491882309F476C2711033
:101040008052B70190E00E9440280F5F1F4FF2CFFF
:1010500077FE0FC04C0C04FF04C08A81813309F471
:101060004A94141474F5F8E0F41578F588E0482EE5
:101070002CC076FC2AC0812F90E08C159D059CF039
:101080006CEFC6166FEFD60674F0772D7068772E6A
:101090000AC0E2E0F0E0EC0FFD1FE10FF11D8081DE
:1010A000803319F411501111F4CF77FE0EC044248F
:1010B0004394410E812F90E0C816D9062CF41C19D8
:1010C00004C04424439401C010E077FE07C01C1400
:1010D0001D043CF496012F5F3F4F05C025E030E032
:1010E00002C021E030E0662011F02F5F3F4F112356
:1010F00031F0412F50E04F5F5F4F240F351F452DDA
:1011000050E02417350714F4521A01C0512C872DD2
:10111000897049F4552039F0B70180E290E00E94CF
:1011200040285A94F7CF662029F0B701862D90E029
:101130000E94402873FC09C0552039F0B70180E3B4
:1011400090E00E9440285A94F7CF77FE5FC09C2D14
:101150008D2DD7FE02C090E080E0692E782E40E011
:1011600050E0C601841991099D878C879601261944
:101170003709280D391D812F90E0EE27FF27E81B46
:10118000F90BFF87EE87FFEF6F167F0669F4B70153
:101190008EE290E02B8B3A8B488B598B0E94402833
:1011A000598948893A892B89C614D70454F06C852B
:1011B0007D85661577052CF4F901E40FF51F818113
:1011C00001C080E371E0671A71084F5F5F4FEE85E1
:1011D000FF856E167F066CF0B70190E02B8B3A8B83
:1011E000488B598B0E9440282B893A894889598914
:1011F000CACF6C147D0439F49A81963318F4953370
:1012000011F404FF81E3B70190E04BC08A81813380
:1012100009F00F7EB70190E00E944028111105C02F
:1012200074FE18C085E490E017C0B7018EE290E02C
:101230000E94402882E066246394680EF401E80F5F
:10124000F11D8081B70190E00E944028115041F3C8
:10125000862DF1CF85E690E0B7010E944028D7FCAB
:1012600005C0C114D10439F404FF05C0D194C19460
:10127000D1088DE201C08BE2B70190E00E944028C6
:1012800080E36AE0C616D1042CF08F5FFAE0CF1A33
:10129000D108F7CFB70190E00E944028B701C601FE
:1012A000C0960E94402841C1833631F0833779F0DF
:1012B000833509F058C021C0560172E0A70EB11C59
:1012C000F6018081898301E010E0640114C05601B9
:1012D000F2E0AF0EB11CF601C080D18026FF03C042
:1012E000612F70E002C06FEF7FEFC6012B8B0E9471
:1012F00035288C012B892F7715C05601F2E0AF0EEF
:10130000B11CF601C080D18026FF03C0612F70E0C0
:1013100002C06FEF7FEFC6012B8B0E942A288C0141
:101320002B892068722E23FD1AC0852D90E00817A6
:101330001907A8F4B70180E290E00E9440285A946F
:10134000F4CFF60177FC859177FE81916F01B701AB
:1013500090E00E94402851105A9401501109011543
:10136000110579F7E2C0843611F0893651F556013E
:1013700027FF09C0F4E0AF0EB11CF6016081718156
:10138000828193810AC0F2E0AF0EB11CF601608148
:101390007181882777FD8095982F022F0F7697FF10
:1013A00008C090958095709561957F4F8F4F9F4FA6
:1013B00000682AE030E0A4010E94AB28C82EC818BB
:1013C0003EC0022F853721F40F7E2AE030E01DC099
:1013D000097F8F3691F018F4883559F0B0C0803706
:1013E00019F0883711F0ABC0006104FF09C0046038
:1013F00007C024FF08C0066006C028E030E005C032
:1014000020E130E002C020E132E0560107FF09C0D0
:10141000F4E0AF0EB11CF60160817181828193818D
:1014200008C0F2E0AF0EB11CF6016081718180E06E
:1014300090E0A4010E94AB28C82EC8180F7706FFC1
:101440000BC0202F2E7FC11650F404FF0AC002FDEE
:1014500008C0202F2E7E05C0DC2C202F03C0DC2CE2
:1014600001C0D12E24FF0DC0FE01EC0DF11D8081C5
:10147000803311F4297E09C022FF06C0D394D3948F
:1014800004C0822F867809F0D39423FD13C020FF77
:1014900006C01C2DD51418F4150D1D19D52CD51406
:1014A00068F4B70180E290E02B8B0E944028D3942F
:1014B0002B89F5CFD51410F45D1801C0512C24FFF1
:1014C00012C0B70180E390E02B8B0E9440282B894B
:1014D00022FF17C021FF03C088E590E002C088E723
:1014E00090E0B7010CC0822F867859F021FD02C030
:1014F00080E201C08BE227FD8DE2B70190E00E94FF
:101500004028C11638F4B70180E390E00E944028DB
:101510001150F7CFCA94F401EC0DF11D8081B70191
:1015200090E00E944028C110F5CF552009F4C2CCAC
:10153000B70180E290E00E9440285A94F6CFF7016C
:101540008681978102C08FEF9FEF63960FB6F89464
:10155000DEBF0FBECDBFDF91CF911F910F91FF90E6
:10156000EF90DF90CF90BF90AF909F908F907F9043
:101570006F905F904F903F902F90089580E090E0A3
:101580000895FC0124853585F901E058FF4F8081DD
:10159000918180589F4F329620813181821B930B1D
:1015A0008F77907897FF0895019780689F6F0196D5
:1015B0000895FC0184859585FC01EE57FF4F20813D
:1015C0003181DC01A058BF4F4D915C914217530708
:1015D000C1F0DC01A20FB31F8C912F5F3F4F2F771B
:1015E000307837FD04C03183208390E00895215086
:1015F000310920683F6F2F5F3F4F3183208390E098
:1016000008958FEF9FEF0895FC0184859585FC0177
:10161000E058FF4FDC01AE57BF4F8D919C919183F5
:1016200080830895DC015296ED91FC91539741E03F
:1016300050E05B960C905B9702C0440F551F0A94D4
:10164000E2F7208130E024233523232BD1F3569673
:10165000ED91FC915797608381E090E008951F928F
:101660000F920FB60F9211240BB60F922F933F9348
:101670004F935F936F938F939F93EF93FF9360913B
:10168000C6002091DA023091DB02C90101968F7702
:10169000907897FD1FC04091DC025091DD028417C5
:1016A000950741F0F901E65AFD4F60839093DB0204
:1016B0008093DA02FF91EF919F918F916F915F91EB
:1016C0004F913F912F910F900BBE0F900FBE0F9037
:1016D0001F901895019780689F6F0196DCCF1F922D
:1016E0000F920FB60F9211240BB60F922F933F93C8
:1016F0004F935F936F938F939F93EF93FF936091BB
:10170000CE002091560230915702C90101968F7781
:10171000907897FD1FC0409158025091590284174C
:10172000950741F0F901EA52FE4F6083909357020A
:1017300080935602FF91EF919F918F916F915F91EE
:101740004F913F912F910F900BBE0F900FBE0F90B6
:101750001F901895019780689F6F0196DCCF7F924C
:101760008F929F92AF92BF92CF92DF92EF92FF92B1
:101770000F931F93CF93DF93EC016A017B014134F8
:1017800082E458078FE06807710508F455C0EA89BC
:10179000FB8981E090E00C8C02C0880F991F0A94AD
:1017A000E2F7808360E079E08DE390E0A7019601A5
:1017B0000E94052621503109410951095695479546
:1017C00037952795C901EE85FF859083E889F989CA
:1017D0008083EC89FD89408181E090E09C01088C48
:1017E00002C0220F331F0A94E2F7422B4083EC8998
:1017F000FD8940819C01098C02C0220F331F0A948D
:10180000E2F7422B4083EC89FD8920810A8C02C0DB
:10181000880F991F0A94E2F7282B2083DF91CF913C
:101820001F910F91FF90EF90DF90CF90BF90AF90FE
:101830009F908F907F90089560E874E88EE190E02B
:10184000A70196010E94052649015A0181E0881AE4
:101850009108A108B108B694A79497948794A5011C
:1018600094012F5F3F4F4F4F5F4F220F331F441F95
:10187000551F220F331F441F551F220F331F441FB4
:10188000551F220F331F441F551F60E074E284EF81
:1018900090E00E9405260FEF10E0AFEFB0E00E944D
:1018A0002726A70196010E940526021B130B10167E
:1018B0001106CCF5722E709460E079E08DE390E033
:1018C000A70196010E9405262150310941095109BD
:1018D0002E7F2E5F3F4F4F4F5F4F220F331F441F0E
:1018E000551F220F331F441F551F60E074E284EF21
:1018F00090E00E9405260FEF10E0AFEFB0E00E94ED
:101900002726A70196010E940526021B130B10161D
:1019100011066CF42095271508F439CFEA89FB8964
:101920001082C40150CF77247394720EC5CF2F5FFD
:10193000F2CF1092BC011092BB0188EE93E0A0E0C0
:10194000B0E08093BD019093BE01A093BF01B0931E
:10195000C0012AE131E03093BA012093B9014AE590
:1019600052E05093C6014093C50145EC50E05093BE
:10197000C8014093C70144EC50E05093CA01409322
:10198000C90140EC50E05093CC014093CB0141ECB5
:1019900050E05093CE014093CD0146EC50E050937F
:1019A000D0014093CF01E4E0E093D10173E0709364
:1019B000D20167E06093D30155E05093D40141E038
:1019C0004093D50110929F0110929E018093A00137
:1019D0009093A101A093A201B093A30130939D0124
:1019E00020939C0186ED91E09093A9018093A8013A
:1019F0008DEC90E09093AB018093AA018CEC90E089
:101A00009093AD018093AC0188EC90E09093AF018E
:101A10008093AE0189EC90E09093B1018093B00186
:101A20008EEC90E09093B3018093B201E093B40107
:101A30007093B5016093B6015093B7014093B8011C
:101A40000895CF92DF92EF92FF920F931F93CF935F
:101A5000DF936C0141155105F1F08B01EA01E12C96
:101A6000F12CD8016D918D01D601ED91FC91019081
:101A7000F081E02DC6010995E80EF91E2197209707
:101A800081F7C701DF91CF911F910F91FF90EF90E8
:101A9000DF90CF900895E12CF12CF3CFDB010D9076
:101AA0000020E9F7AD0141505109461B570BDC01FD
:101AB000ED91FC910280F381E02D0994EF92FF9269
:101AC0000F931F93CF93DF93EC01FB010190002054
:101AD000E9F7AF0141505109461B570BE881F981E5
:101AE0000280F381E02D09958C01E881F981019054
:101AF000F081E02D6DE0CE0109957C01E881F9814E
:101B00000190F081E02D6AE0CE0109950E0D1F1DB8
:101B1000800F911FDF91CF911F910F91FF90EF9058
:101B200008952F923F924F925F926F927F928F9281
:101B30009F92AF92BF92CF92DF92EF92FF920F935C
:101B40001F93CF93DF93CDB7DEB7A1970FB6F8946D
:101B5000DEBF0FBECDBF8C014115510509F4C7C0D2
:101B60004A30510509F474C0942E6B01EE24D7FC61
:101B7000E094FE2C19A2B1E0B41708F0C1C0442EC5
:101B8000512C612C712C5E01E1E2AE0EB11C02C041
:101B900069017A01C701B601A30192010E940526DD
:101BA0006C2D929E60191124F1E0AF1AB10890E3F8
:101BB000960F87E3860F6A3008F4892FD5018C933E
:101BC000211531054105510519F7F5010190002056
:101BD000E9F7AF01415051094A195B09D801ED916C
:101BE000FC910280F381E02DB501C80109953C010B
:101BF000D801ED91FC910190F081E02D6DE0C801DC
:101C000009957C01D801ED91FC910190F081E02DC6
:101C10006AE0C8010995E60CF71C8E0D9F1DA19680
:101C20000FB6F894DEBF0FBECDBFDF91CF911F91ED
:101C30000F91FF90EF90DF90CF90BF90AF909F906B
:101C40008F907F906F905F904F903F902F9008956E
:101C50004B01AA2497FCA094BA2CB7FC59C0D82CED
:101C6000792DC50119A27E01B1E2EB0EF11CBAE09B
:101C70004B2E512C612C712C0BC0862FD7018C93CD
:101C80002115310541055105F1F0D22E732FCA01FE
:101C90006D2DA30192010E9405268D2DEAE02E9F55
:101CA00080191124F1E0EF1AF10860E3680F97E35F
:101CB000980F8A3010F3892FD7018C9321153105A5
:101CC0004105510511F7F70101900020E9F7AF0137
:101CD000415051094E195F09D801ED91FC910280E4
:101CE000F381E02DB701C80109953C0181CFDC01EA
:101CF000ED91FC910190F081E02D09953C0178CFA8
:101D0000FAE04F2E512C612C712CAAE09A2E3BCF79
:101D1000DC01ED91FC910190F081E02D6DE20995DF
:101D20001C01CC24DD247601C818D908EA08FB0878
:101D300019A25E01B1E2AB0EB11C8AE0482E512C13
:101D4000612C712C02C069017A01C701B601A3019F
:101D500092010E9405266C2DEAE02E9F6019112445
:101D6000F1E0AF1AB10890E3960F87E3860F6A306F
:101D700008F4892FD5018C932115310541055105B2
:101D800011F7F50101900020E9F7AF014150510929
:101D90004A195B09D801ED91FC910280F381E02D95
:101DA000B501C80109953C01620C731C21CF8F92CB
:101DB0009F92AF92BF92CF92DF92EF92FF920F93DA
:101DC0001F93CF93DF93CDB7DEB7A1970FB6F894EB
:101DD000DEBF0FBECDBF7C01D42EE52FCB01211578
:101DE000310509F470C0C22E19A2B1E0B21708F093
:101DF00075C0822E912CA12CB12C8E010F5D1F4F2E
:101E00000BC0862FF801808321153105410551054E
:101E1000E9F0D22EE32FCA016D2D7E2FA50194018A
:101E20000E9405268D2DC29E801911240150110992
:101E300060E3680F97E3980F8A3018F3892FF80151
:101E40008083211531054105510519F7D8010D9001
:101E50000020E9F7AD0141505109401B510BD7015A
:101E6000ED91FC910280F381E02DB801C701099545
:101E70008C01D701ED91FC910190F081E02D6DE096
:101E8000C70109955C01D701ED91FC910190F081AA
:101E9000E02D6AE0C70109950A0D1B1D800F911FF7
:101EA000A1960FB6F894DEBF0FBECDBFDF91CF91E4
:101EB0001F910F91FF90EF90DF90CF90BF90AF9068
:101EC0009F908F900895D701ED91FC910190F08142
:101ED000E02D642FC70109958C01CBCF7AE0872EC6
:101EE000912CA12CB12CFAE0CF2E87CFEF92FF924C
:101EF0000F931F93CF93DF93CDB7DEB7C054D109B3
:101F00000FB6F894DEBF0FBECDBF2B96EEACFFAC84
:101F10002B979E01235B3F4F2D964EAD5FAD2D97C6
:101F200060E470E08E010F5F1F4FC8010E947228AD
:101F3000D8010D900020E9F7AD0141505109401B37
:101F4000510BD701ED91FC910280F381E02DB80196
:101F5000C7010995C05CDF4F0FB6F894DEBF0FBE16
:101F6000CDBFDF91CF911F910F91FF90EF9008951A
:101F70001F920F920FB60F9211240BB60F922F9350
:101F80003F934F935F936F937F938F939F93AF9301
:101F9000BF93EF93FF938091DE029091DF02892B34
:101FA00029F0E091DE02F091DF020995FF91EF91B7
:101FB000BF91AF919F918F917F916F915F914F9161
:101FC0003F912F910F900BBE0F900FBE0F901F905F
:101FD00018951F920F920FB60F9211240BB60F9205
:101FE0002F933F934F935F936F937F938F939F9321
:101FF000AF93BF93EF93FF938091E0029091E10242
:10200000892B29F0E091E002F091E1020995FF911E
:10201000EF91BF91AF919F918F917F916F915F9160
:102020004F913F912F910F900BBE0F900FBE0F90CD
:102030001F9018951F920F920FB60F9211240BB696
:102040000F922F933F934F935F936F937F938F9351
:102050009F93AF93BF93EF93FF938091E202909190
:10206000E302892B29F0E091E202F091E302099565
:10207000FF91EF91BF91AF919F918F917F916F9160
:102080005F914F913F912F910F900BBE0F900FBE1C
:102090000F901F9018951F920F920FB60F92112458
:1020A0000BB60F922F933F934F935F936F937F9352
:1020B0008F939F93AF93BF93EF93FF938091E4022D
:1020C0009091E502892B29F0E091E402F091E5027C
:1020D0000995FF91EF91BF91AF919F918F917F9162
:1020E0006F915F914F913F912F910F900BBE0F9089
:1020F0000FBE0F901F9018951F920F920FB60F9260
:1021000011240BB60F922F933F934F935F936F93CE
:102110007F938F939F93AF93BF93EF93FF938091A0
:10212000E6029091E702892B29F0E091E602F09116
:10213000E7020995FF91EF91BF91AF919F918F9128
:102140007F916F915F914F913F912F910F900BBEB7
:102150000F900FBE0F901F9018951F920F920FB601
:102160000F9211240BB60F922F933F934F935F93CF
:102170006F937F938F939F93AF93BF93EF93FF934F
:102180008091E8029091E902892B29F0E091E80220
:10219000F091E9020995FF91EF91BF91AF919F9165
:1021A0008F917F916F915F914F913F912F910F9000
:1021B0000BBE0F900FBE0F901F9018951F920F929D
:1021C0000FB60F9211240BB60F922F933F934F939C
:1021D0005F936F937F938F939F93AF93BF93EF938F
:1021E000FF938091EA029091EB02892B29F0E09114
:1021F000EA02F091EB020995FF91EF91BF91AF9147
:102200009F918F917F916F915F914F913F912F910E
:102210000F900BBE0F900FBE0F901F9018951F923E
:102220000F920FB60F9211240BB60F922F933F937C
:102230004F935F936F937F938F939F93AF93BF93CE
:10224000EF93FF938091EC029091ED02892B29F09E
:10225000E091EC02F091ED020995FF91EF91BF91B1
:10226000AF919F918F917F916F915F914F913F912E
:102270002F910F900BBE0F900FBE0F901F901895CF
:102280001F920F920FB60F9211242F933F938F93AB
:102290009F93AF93BF938091EF029091F002A09132
:1022A000F102B091F2023091EE0223E0230F2D37BC
:1022B00068F126E8230F0296A11DB11D2093EE02BE
:1022C0008093EF029093F002A093F102B093F20298
:1022D0008091F3029091F402A091F502B091F60280
:1022E0000196A11DB11D8093F3029093F402A09377
:1022F000F502B093F602BF91AF919F918F913F91FC
:102300002F910F900FBE0F901F9018950196A11D51
:10231000B11DD4CFCF92DF92EF92FF920F931F9314
:102320002FB7F894C090EF02D090F002E090F10245
:10233000F090F2022FBFEFB7F8940091EF021091E6
:10234000F0022091F1023091F202EFBF0C191D0949
:102350002E093F09601771078207930760F71F91E5
:102360000F91FF90EF90DF90CF9008950197009725
:1023700051F0880F991F880F991F02972FB7F89473
:102380000197F1F72FBF0895789484B5886084BDD4
:1023900084B5806484BD84B5826084BD84B5816069
:1023A00084BDEEE6F0E0808181608083EAE7F0E0C2
:1023B000808184608083808182608083808181606D
:1023C00080838081806880831092C10008959FB7C8
:1023D000F8948091F70281110CC0289A209A8CB54C
:1023E00080618CBD8CB580648CBD219A229A8091CD
:1023F000F7028F5F8093F7029FBF08951F920F929D
:102400000FB60F9211240BB60F922F933F934F9359
:102410005F936F937F938F939F93AF93BF93EF934C
:10242000FF93E091F802F091F902309781F08091EA
:102430007800209179006381748190E00180F281BD
:10244000E02D922B09951092F9021092F802FF915B
:10245000EF91BF91AF919F918F917F916F915F911C
:102460004F913F912F910F900BBE0F900FBE0F9089
:102470001F9018951F920F920FB60F9211240BB652
:102480000F927F928F929F92AF92BF92CF92DF92E4
:10249000EF92FF920F931F932F933F934F935F936E
:1024A0006F937F938F939F93AF93BF93EF93FF931C
:1024B000CF93DF93CDB7DEB76197DEBFCDBFF0908E
:1024C000ED00B0EE7B2E10EDC12E00ECD02E80EB97
:1024D000E82E00EA10E9F0E8E0E770E660E550E495
:1024E00040E330E220E106C01092ED008091EE0062
:1024F00085FD15C09091E0008091E100892B09F4E1
:102500009FC08091E00080FDEFCF8091E00081FFCF
:1025100082C02093ED008091EE0085FFEBCF1092FA
:10252000EE008AE090E08C0F9D1F9987888780914C
:10253000FA008A878091FA008B878091FA008C8755
:102540008091FA008D878091FA008E878091FA0041
:102550008F878091FA00888B8091FA00898B809117
:10256000EF008F708D838091EF00829581708F8353
:102570009091F00092FB992790F99E83882309F4AB
:102580009DC04091F3008091F2008090F100209175
:10259000F00090E0982F88279295990F907EAA27B7
:1025A00097FDA095BA2F30E2839E40011124AA2402
:1025B00097FCA094BA2C880D991DAA1DBB1D50E054
:1025C00060E070E0E5E1440F551F661F771FEA9554
:1025D000D1F7840F951FA61FB71F422F50E05595C6
:1025E00047955595479555954795662757FD6095AD
:1025F000762F840F951FA61FB71F89839A83AB83FD
:10260000BC836091ED00E091FA02F091FB02CE01F3
:102610000196099560CF8091E00082FF03C030935E
:10262000ED0064CF8091E00083FF03C04093ED0094
:102630005DCF8091E00084FF2BC05093ED0056CF1A
:10264000F092ED0061960FB6F894DEBF0FBECDBFDD
:10265000DF91CF91FF91EF91BF91AF919F918F91BA
:102660007F916F915F914F913F912F911F910F91AA
:10267000FF90EF90DF90CF90BF90AF909F908F90A2
:102680007F900F900BBE0F900FBE0F901F9018956C
:102690008091E00085FF03C06093ED0027CF80911B
:1026A000E00086FD22C08091E00087FD2FC0809170
:1026B000E10080FF1DC0F093ED0018CF2091F300E2
:1026C0008091F20090E095958795959587959595E1
:1026D0008795959587959595879538E0239F800DEB
:1026E000911D11249A8389838CCF7093ED00FECEC7
:1026F0008091E10081FD07C08091E10082FF09C067
:102700000093ED00F3CE1093ED00F0CEE093ED00DA
:10271000EDCE8091E10083FF03C0E092ED00E6CEB4
:102720008091E10084FF03C0D092ED00DFCE809164
:10273000E10085FF03C0C092ED00D8CE8091E1009A
:1027400086FFD4CE7092ED00D1CE0F931F93CF931E
:10275000DF938C0140910F03242F332727FD309501
:102760003F934F931F938F9326E231E03F932F9334
:10277000C9EBD1E0DF93CF93B9DBE0910F038DB7C5
:102780009EB708960FB6F8949EBF0FBE8DBFE7FDAB
:1027900029C06091100370E080E094E00E94F2256F
:1027A000C8010E94DE25FF27E7FDF095E450FD4FAC
:1027B000608377277F936F938AE291E09F938F9353
:1027C000DF93CF9393DB80910F030F900F900F90C7
:1027D0000F900F900F90823054F010920F0381E011
:1027E00080930E03DF91CF911F910F9108958F5F1A
:1027F00080930F0381E080930E03DF91CF911F91AF
:102800000F9108951092FF0210920103109200039D
:1028100010920303109202031092F9021092F80230
:10282000EAE7F0E097E09083ACE7B0E080E48C93D7
:1028300020812868208310920403109206031092CE
:10284000050310920803109207031092F9021092E8
:10285000F80290838C9320812868208310920903CA
:1028600010920B0310920A0310920D0310920C03A6
:102870001092F9021092F80290838C9380818868FC
:10288000808308951F920F920FB60F9211248F9399
:1028900080913C038F5F80933C0380913B038F5F6B
:1028A00080933B0380913A038F5F80933A0380913A
:1028B00039038F5F8093390380913A038C3320F082
:1028C00010923A0310924A0380913903853170F0D7
:1028D00010923903809144038130D9F080914503EF
:1028E000813099F080914603813031F08F910F90C3
:1028F0000FBE0F901F9018952D9913C02D9A8F9190
:102900000F900FBE0F901F9018952E9B0CC02E9805
:10291000E9CF2F990AC02F9A80914503813011F792
:10292000F4CF2D98E3CF2E9ADDCF2F98D7CF1092EA
:102930004C0310924E0310924F03109250031092CA
:1029400051038FEF9FEF90935303809352031092A4
:102950005803109257038CEF9FE090935A03809393
:10296000590387E08093540381E0809355031092CC
:102970004D030895CF93DF93CDB7DEB729970FB6F8
:10298000F894DEBF0FBECDBF10923C03DC012D9149
:102990003C912231310509F48BC090F521153105A8
:1029A00009F468C02031310511F5DC011796ED916D
:1029B000FC91189788E0A1E1B3E001900D928A950F
:1029C000E1F749E050E06CE970E0CE0101960E9429
:1029D000122880E48093ED001092EE008F81811127
:1029E00031C090E88D818F70892B8093EF002996FC
:1029F0000FB6F894DEBF0FBECDBFDF91CF91089523
:102A00002331310509F12431310589F7DC011796AD
:102A1000ED91FC91189788E0A9E1B3E001900D9247
:102A20008A95E1F749E050E065EA70E0CE01019651
:102A30000E94122880E38093ED001092EE008F81B7
:102A4000882379F290E9CECFDC011796ED91FC91C5
:102A5000189788E0A1E2B3E001900D928A95E1F722
:102A600049E050E06EEA70E0CE0101960E94122823
:102A700080E2B0CFDC011796ED91FC91189788E0C9
:102A8000A1E3B3E001900D928A95E1F749E050E0AF
:102A900069EC70E0CE0101960E9412281092ED00C0
:102AA0001092EE008F81882309F49BCF90E99ACF92
:102AB000DC011796ED91FC91189788E0A9E2B3E04C
:102AC00001900D928A95E1F749E050E067EB70E0E4
:102AD000CE0101960E94122880E17CCFFC01818109
:102AE00081115CC093858485289820E92EBD000063
:102AF0000DB407FEFDCF2EB524E22EBD00000DB4AF
:102B000007FEFDCF2EB528EE2EBD00000DB407FE4A
:102B1000FDCF2EB59EBD00000DB407FEFDCF9EB5C6
:102B20008EBD00000DB407FEFDCF8EB5289AA4EE31
:102B300074E260E128986EBD00000DB407FEFDCF81
:102B40008EB57EBD00000DB407FEFDCF8EB5AEBDC7
:102B500000000DB407FEFDCF8EB51EBC00000DB405
:102B600007FEFDCF8EB51EBC00000DB407FEFDCFE5
:102B70009EB51EBC00000DB407FEFDCF8EB5289A91
:102B8000292F382F438554854217530729F02F3FAB
:102B90003F4081F682E3089580E00895289A4385B6
:102BA0005485289880E98EBD00000DB407FEFDCF46
:102BB0008EB584E28EBD00000DB407FEFDCF8EB54C
:102BC00088EE8EBD00000DB407FEFDCF8EB54EBD64
:102BD00000000DB407FEFDCF8EB55EBD00000DB444
:102BE00007FEFDCF8EB51EBC00000DB407FEFDCF65
:102BF0008EB51EBC00000DB407FEFDCF8EB5289A21
:102C0000118270CFCF93FC01CB0125853685261725
:102C1000370708F071C02181211174C033852485E4
:102C2000289840E94EBD00000DB407FEFDCF4EB51B
:102C300044E24EBD00000DB407FEFDCF4EB548EE98
:102C40004EBD00000DB407FEFDCF4EB53EBD0000E9
:102C50000DB407FEFDCF3EB52EBD00000DB407FE3E
:102C6000FDCF2EB5289A258536852817390708F017
:102C700040C0C4EEB4E2A0E16CEF7FE02898AEBDA6
:102C800000000DB407FEFDCF2EB5BEBD00000DB493
:102C900007FEFDCF2EB5CEBD00000DB407FEFDCF63
:102CA0002EB51EBC00000DB407FEFDCF2EB51EBC18
:102CB00000000DB407FEFDCF3EB51EBC00000DB4F4
:102CC00007FEFDCF2EB5289A432F522F4F3F2FE0FE
:102CD0005207A9F023853485241B350B2C7F3F70C8
:102CE000AB01421B530B568745874817590708F419
:102CF000C5CF818181113BC080E0CF91089582E3EF
:102D0000CF910895289A43855485289820E92EBDAF
:102D100000000DB407FEFDCF2EB524E22EBD00004D
:102D20000DB407FEFDCF2EB528EE2EBD00000DB46C
:102D300007FEFDCF2EB54EBD00000DB407FEFDCF42
:102D40002EB55EBD00000DB407FEFDCF2EB51EBC36
:102D500000000DB407FEFDCF2EB51EBC00000DB463
:102D600007FEFDCF2EB5289A21E0218357CF43855A
:102D7000548560E070E050586F4E7F4F2898862F42
:102D800080688EBD00000DB407FEFDCF8EB55EBD20
:102D900000000DB407FEFDCF8EB54EBD00000DB492
:102DA00007FEFDCF8EB581E08183A6CF6F927F9223
:102DB0008F929F92AF92BF92CF92DF92EF92FF924B
:102DC0000F931F93CF93DF9300D000D0CDB7DEB722
:102DD0008C013B012D5F3F4F4F4F5F4F2C7F2115E3
:102DE00031054105510509F440C068EED62E74E264
:102DF000E72EE0E9FE2ECC24C394D8011D968D91D8
:102E00009C911E97A0E0B0E082179307A407B50736
:102E100008F43FC080E090E0DC01F301E80FF91F07
:102E2000E491EEBD00000DB407FEFDCF6EB5019636
:102E3000A11DB11D82179307A407B50770F3D80130
:102E40001B968D919C911C97820F931F9F701C96CF
:102E50009C938E931B971D968D919C911E97821B20
:102E6000930B1E969C938E931D9780E00F900F906E
:102E70000F900F90DF91CF911F910F91FF90EF90E6
:102E8000DF90CF90BF90AF909F908F907F906F908A
:102E90000895F801818181118FC0F801938584859F
:102EA0002898FEBC00000DB407FEFDCF6EB5EEBC49
:102EB00000000DB407FEFDCF6EB5DEBC00000DB402
:102EC00007FEFDCF6EB59EBD00000DB407FEFDCF21
:102ED0009EB58EBD00000DB407FEFDCF8EB5289ABD
:102EE000D8011D96ED91FC911E974F01A12CB12C9C
:102EF000DA01C90182169306A406B50610F4D501BD
:102F0000C4010097A105B10509F4CFC0812C912C13
:102F10005401F301E80DF91DE491EEBD00000DB47C
:102F200007FEFDCF6EB5EFEF8E1A9E0AAE0ABE0AFF
:102F300088169906AA06BB0661F74C015D01F1E00F
:102F40008F1A9108A108B108B4016F5F7F4F660E18
:102F5000771EF801A584B684F80163857485680F2F
:102F6000791F7F7074876387A81AB90AB686A58609
:102F7000281B390B4A0B5B0B922F832F2130F8E073
:102F80003F074105510510F090E088E0692F782F48
:102F9000C80129833A834B835C8334DE29813A81DB
:102FA0004B815C81823309F482C0211531054105D2
:102FB000510509F022CF59CF289A83859485289806
:102FC000FEBC00000DB407FEFDCF6EB5EEBC0000E8
:102FD0000DB407FEFDCF6EB5DEBC00000DB407FEDC
:102FE000FDCF6EB58EBD00000DB407FEFDCF6EB5F2
:102FF0009EBD00000DB407FEFDCF8EB51EBC0000C7
:103000000DB407FEFDCF8EB51EBC00000DB407FE4B
:10301000FDCF8EB5289AD80111961C9211971B9658
:103020009C911B971C968C912898FEBC00000DB4B7
:1030300007FEFDCF6EB5EEBC00000DB407FEFDCF60
:103040006EB5DEBC00000DB407FEFDCF6EB59EBDB3
:1030500000000DB407FEFDCF9EB58EBD00000DB47F
:1030600007FEFDCF8EB5289AF80183859485A0E0F0
:10307000B0E09058AF4EBF4F28986A2F60686EBD81
:1030800000000DB407FEFDCF6EB59EBD00000DB46F
:1030900007FEFDCF6EB58EBD00000DB407FEFDCF5F
:1030A0008EB5D8011196CC921BCF5F0155CF82E32C
:1030B000DDCE0F931F93CF93DF938B01D82FC92FB2
:1030C00020914D03222309F442C0209159033091ED
:1030D0005A032430310570F10EBD00000DB407FE17
:1030E000FDCF8EB51EBD00000DB407FEFDCF8EB521
:1030F000DEBD00000DB407FEFDCF8EB5CEBD0000D5
:103100000DB407FEFDCF8EB5809157039091580303
:1031100004969F709093580380935703245031096D
:1031200030935A032093590380E0DF91CF911F9190
:103130000F91089564E070E08CE493E063DD8233E6
:1031400009F49BC02091590330915A03C5CFE091F7
:103150005703F0915803AF0160E070E050586F4E94
:103160007F4F2898862F80688EBD00000DB407FE23
:10317000FDCF8EB55EBD00000DB407FEFDCF8EB550
:103180004EBD00000DB407FEFDCF8EB581E08093EB
:103190004D032091590330915A032430310580F4B6
:1031A00064E070E08CE493E02DDD823309F46BC0C1
:1031B000E0915703F09158032091590330915A033D
:1031C0000EBD00000DB407FEFDCF8EB51EBD000084
:1031D0000DB407FEFDCF8EB5DEBD00000DB407FEB9
:1031E000FDCF8EB5CEBD00000DB407FEFDCF8EB570
:1031F0003496FF70F0935803E0935703245031093D
:1032000030935A032093590380E0289AAF012898FD
:1032100090E99EBD00000DB407FEFDCF9EB594E27F
:103220009EBD00000DB407FEFDCF9EB598EE9EBD7D
:1032300000000DB407FEFDCF9EB54EBD00000DB4DD
:1032400007FEFDCF9EB55EBD00000DB407FEFDCFAD
:103250009EB51EBC00000DB407FEFDCF9EB51EBC82
:1032600000000DB407FEFDCF9EB5289A10924D03C5
:10327000DF91CF911F910F91089582E3DF91CF915C
:103280001F910F91089582E3E0915703F091580345
:10329000BCCFCF92DF92EF92FF920F931F93CF9309
:1032A000DF9300D0CDB7DEB76C017B01FC018181DB
:1032B000882309F441C0F60185859685049780F13D
:1032C0004EBD00000DB407FEFDCF8EB55EBD000003
:1032D0000DB407FEFDCF8EB5EEBC00000DB407FEA9
:1032E000FDCF8EB5FEBC00000DB407FEFDCF8EB540
:1032F000F6018385948504969F70948783878585DE
:10330000968504979687858780E00F900F90DF91D0
:10331000CF911F910F91FF90EF90DF90CF90089584
:1033200064E070E0C60149835A836CDC49815A81AC
:10333000823331F682E3E9CF0385148520E030E063
:1033400010582F4E3F4F2898822F80688EBD000066
:103350000DB407FEFDCF8EB51EBD00000DB407FEF7
:10336000FDCF8EB50EBD00000DB407FEFDCF8EB5AE
:1033700081E0F601818385859685049760F464E099
:1033800070E0C60149835A833DDC49815A8182330A
:1033900011F482E325C04EBD00000DB407FEFDCF41
:1033A0008EB55EBD00000DB407FEFDCF8EB5EEBC40
:1033B00000000DB407FEFDCF8EB5FEBC00000DB4BD
:1033C00007FEFDCF8EB5F6018385948504969F7028
:1033D000948783878585968504979687858780E07F
:1033E000289AF60143855485289890E99EBD0000EF
:1033F0000DB407FEFDCF9EB594E29EBD00000DB456
:1034000007FEFDCF9EB598EE9EBD00000DB407FEF1
:10341000FDCF9EB54EBD00000DB407FEFDCF9EB59D
:103420005EBD00000DB407FEFDCF9EB51EBC0000C2
:103430000DB407FEFDCF9EB51EBC00000DB407FE07
:10344000FDCF9EB5289AF60111825FCF6F927F92D1
:103450008F929F92AF92BF92CF92DF92EF92FF92A4
:103460000F931F93CF93DF9300D000D0CDB7DEB77B
:103470003C018B012D5F3F4F4F4F5F4F2C7F21153C
:10348000310541055105E9F168EED62E74E2E72ECB
:10349000E0E9FE2ECC24C394D3011D968D919C911E
:1034A0001E97A0E0B0E082179307A407B507E8F1E4
:1034B000F80180E090E0DC0161916EBD00000DB488
:1034C00007FEFDCF6EB50196A11DB11D82179307B2
:1034D000A407B50788F3D3011B968D919C911C9787
:1034E000820F931F9F701C969C938E931B971D9623
:1034F0008D919C911E97821B930B1E969C938E938D
:103500001D9780E00F900F900F900F90DF91CF915B
:103510001F910F91FF90EF90DF90CF90BF90AF90F1
:103520009F908F907F906F900895F301818181111A
:103530008DC0F301938584852898FEBC00000DB4EE
:1035400007FEFDCF6EB5EEBC00000DB407FEFDCF4B
:103550006EB5DEBC00000DB407FEFDCF6EB59EBD9E
:1035600000000DB407FEFDCF9EB58EBD00000DB46A
:1035700007FEFDCF8EB5289AD3011D96ED91FC91E3
:103580001E974F01A12CB12CDA01C90182169306B6
:10359000A406B50610F4D501C4010097A105B10534
:1035A00009F4CDC0F801812C912C540161916EBDBC
:1035B00000000DB407FEFDCF6EB56FEF861A960AB8
:1035C000A60AB60A88169906AA06BB0679F74C0120
:1035D0005D01E1E08E1A9108A108B108B4016F5FA6
:1035E0007F4F060F171FF301A584B684F30163858F
:1035F0007485680F791F7F7074876387A81AB90A6A
:10360000B686A586281B390B4A0B5B0B922F832F9E
:103610002130F8E03F074105510510F090E088E0C7
:10362000692F782FC30129833A834B835C83EADABD
:1036300029813A814B815C81823309F482C0211552
:1036400031054105510509F027CF5BCF289A8385C5
:1036500094852898FEBC00000DB407FEFDCF6EB522
:10366000EEBC00000DB407FEFDCF6EB5DEBC000061
:103670000DB407FEFDCF6EB58EBD00000DB407FE84
:10368000FDCF6EB59EBD00000DB407FEFDCF8EB51B
:103690001EBC00000DB407FEFDCF8EB51EBC0000A1
:1036A0000DB407FEFDCF8EB5289AD30111961C925A
:1036B00011971B969C911B971C968C912898FEBC89
:1036C00000000DB407FEFDCF6EB5EEBC00000DB4DA
:1036D00007FEFDCF6EB5DEBC00000DB407FEFDCFCA
:1036E0006EB59EBD00000DB407FEFDCF9EB58EBD2C
:1036F00000000DB407FEFDCF8EB5289AF301838537
:103700009485A0E0B0E09058AF4EBF4F28986A2F44
:1037100060686EBD00000DB407FEFDCF6EB59EBDA6
:1037200000000DB407FEFDCF6EB58EBD00000DB4D8
:1037300007FEFDCF8EB5D3011196CC921DCF5F0150
:1037400055CF82E3DFCEEF92FF920F931F93CF937B
:10375000DF93CDB7DEB7C054D1090FB6F894DEBF02
:103760000FBECDBF2B960EAD1FAD2B979E012C5AD1
:103770003F4F64964EAD5FAD649760E470E0CE015C
:1037800001967C010E9472284CE05FEF6FEF7FEFA3
:10379000C8017FDD2D964EAD5FAD2D9760E070E0E6
:1037A0002F968EAD9FAD2F97AA2797FDA095BA2F84
:1037B000DC0199278827482B592B6A2B7B2BC801C2
:1037C00068DD62964EAD5FAD629760E070E0BA0171
:1037D0005527442760968FAD6097482BC80159DD67
:1037E000F70101900020E9F7EE19FF099F0140E081
:1037F00050E0F8018181882389F0B701C80126DEF5
:10380000C05CDF4F0FB6F894DEBF0FBECDBFDF91B7
:10381000CF911F910F91FF90EF900895838594852C
:10382000A0E0B0E09058AF4EBF4F28986A2F606874
:103830006EBD00000DB407FEFDCF6EB59EBD00004D
:103840000DB407FEFDCF6EB58EBD00000DB407FEB2
:10385000FDCF8EB581E0F8018183B701C801F6DDA7
:10386000289AF80143855485289890E99EBD000068
:103870000DB407FEFDCF9EB594E29EBD00000DB4D1
:1038800007FEFDCF9EB598EE9EBD00000DB407FE6D
:10389000FDCF9EB54EBD00000DB407FEFDCF9EB519
:1038A0005EBD00000DB407FEFDCF9EB51EBC00003E
:1038B0000DB407FEFDCF9EB51EBC00000DB407FE83
:1038C000FDCF9EB5289AF80111829ACF4F925F9250
:1038D0006F927F928F929F92AF92BF92CF92DF9220
:1038E000EF92FF921F93CF93DF93CDB7DEB72C9764
:1038F0000FB6F894DEBF0FBECDBF2C018CE0EAE01E
:10390000F1E0DE01119601900D928A95E1F78CB5F8
:103910008C7F8CBD8DB581608DBD28981EBC00004C
:103920000DB407FEFDCF8EB51EBC00000DB407FE22
:10393000FDCF8EB51EBC00000DB407FEFDCF8EB5C9
:103940001EBC00000DB407FEFDCF8EB51EBC0000EE
:103950000DB407FEFDCF8EB5289A64E170E080E0DB
:1039600090E00E948A1164E170E080E090E00E94A3
:103970008A1110E028E0622E34E2732E40E1842E9A
:103980005CE6952E65E2A62E70E9B72E28988EBCCF
:1039900000000DB407FEFDCF8EB57EBC00000DB457
:1039A00007FEFDCF8EB56EBC00000DB407FEFDCF47
:1039B0008EB51EBC00000DB407FEFDCF8EB51EBC3B
:1039C00000000DB407FEFDCF4EB51EBC00000DB4C7
:1039D00007FEFDCF3EB51EBC00000DB407FEFDCFB7
:1039E0009EB51EBC00000DB407FEFDCF8EB5289A13
:1039F000C42ED32EE92EF82E89E09DE30E94B61145
:103A000028988EBC00000DB407FEFDCF8EB57EBC9D
:103A100000000DB407FEFDCF8EB56EBC00000DB4E6
:103A200007FEFDCF8EB51EBC00000DB407FEFDCF16
:103A30008EB51EBC00000DB407FEFDCFEEB51EBC5A
:103A400000000DB407FEFDCF3EB51EBC00000DB456
:103A500007FEFDCF9EB51EBC00000DB407FEFDCFD6
:103A60008EB5289A4E2F532F692F782F4C195D0948
:103A70006E097F09440F551F661F771F440F551F9E
:103A8000661F771F440F551F661F771F440F551F72
:103A9000661F771F440F551F661F771F440F551F62
:103AA000661F771F411586EC58078DEC680782E08A
:103AB0007807F0F42898BEBC00000DB407FEFDCFD7
:103AC0008EB5AEBC00000DB407FEFDCF8EB59EBC1A
:103AD00000000DB407FEFDCF8EB51EBD00000DB475
:103AE00007FEFDCF8EB5289A1F5F1F3109F04ECF1C
:103AF000289880E98EBD00000DB407FEFDCF8EB57D
:103B000084E28EBD00000DB407FEFDCF8EB58CE0C3
:103B10008EBD00000DB407FEFDCF8EB54EBD00007A
:103B20000DB407FEFDCF8EB55EBD00000DB407FEDF
:103B3000FDCF8EB56EBD00000DB407FEFDCF8EB576
:103B40007EBD00000DB407FEFDCF8EB5289A2898E3
:103B500080E98EBD00000DB407FEFDCF8EB51EBC02
:103B600000000DB407FEFDCF8EB51EBC00000DB4E5
:103B700007FEFDCF8EB5FE013196CE010D96219147
:103B80002EBD00000DB407FEFDCF2EB5E817F907D6
:103B9000B1F7289A289880E98EBD00000DB407FE81
:103BA000FDCF8EB584E28EBD00000DB407FEFDCFC3
:103BB0008EB580E58EBD00000DB407FEFDCF8EB53D
:103BC00082E08EBD00000DB407FEFDCF8EB5289AB1
:103BD000F201148613868CEF9FE0968785872C96DA
:103BE0000FB6F894DEBF0FBECDBFDF91CF911F910E
:103BF000FF90EF90DF90CF90BF90AF909F908F900D
:103C00007F906F905F904F900895CF92DF92EF92E8
:103C1000FF920F931F93CF93DF93CDB7DEB76F97CC
:103C20000FB6F894DEBF0FBECDBF40E051EE60E0AE
:103C300070E089EB91E00E94AF0B8091520390916C
:103C40005303019619F08DB1887F8DB984B18560D9
:103C500084B9289A0E94E7118CB58C7F8CBD8DB5F4
:103C600081608DBD8CB58F7D8CBD8CB5837F8CBD07
:103C70008CE493E02BDE289880E98EBD00000DB423
:103C800007FEFDCF8EB584E28EBD00000DB407FEA9
:103C9000FDCF8EB588E48EBD00000DB407FEFDCFCC
:103CA0008EB51EBC00000DB407FEFDCF8EB51EBC48
:103CB00000000DB407FEFDCF8EB5289A289880E944
:103CC0008EBD00000DB407FEFDCF8EB584E28EBD23
:103CD00000000DB407FEFDCF8EB58CE48EBD000054
:103CE0000DB407FEFDCF8EB58AE08EBD00000DB489
:103CF00007FEFDCF8EB51EBC00000DB407FEFDCF44
:103D00008EB5289A289880E98EBD00000DB407FE74
:103D1000FDCF8EB584E28EBD00000DB407FEFDCF51
:103D20008EB580E48EBD00000DB407FEFDCF8EB5CC
:103D30008CE08EBD00000DB407FEFDCF8EB51EBC1D
:103D400000000DB407FEFDCF8EB5289A289880E9B3
:103D50008EBD00000DB407FEFDCF8EB584E28EBD92
:103D600000000DB407FEFDCF8EB58CE38EBD0000C4
:103D70000DB407FEFDCF8EB584E28EBD00000DB4FC
:103D800007FEFDCF8EB581E08EBD00000DB407FEAD
:103D9000FDCF8EB5289A289880E98EBD00000DB41D
:103DA00007FEFDCF8EB584E28EBD00000DB407FE88
:103DB000FDCF8EB584E38EBD00000DB407FEFDCFB0
:103DC0008EB51EBC00000DB407FEFDCF8EB51EBC27
:103DD00000000DB407FEFDCF8EB5289A289880E923
:103DE0008EBD00000DB407FEFDCF8EB584E28EBD02
:103DF00000000DB407FEFDCF8EB588E38EBD000038
:103E00000DB407FEFDCF8EB589E28EBD00000DB466
:103E100007FEFDCF8EB51EBC00000DB407FEFDCF22
:103E20008EB5289A289880E98EBD00000DB407FE53
:103E3000FDCF8EB584E28EBD00000DB407FEFDCF30
:103E40008EB58CE28EBD00000DB407FEFDCF8EB5A1
:103E50008BE28EBD00000DB407FEFDCF8EB51EBCFB
:103E600000000DB407FEFDCF8EB5289A289880E992
:103E70008EBD00000DB407FEFDCF8EB584E28EBD71
:103E800000000DB407FEFDCF8EB588E28EBD0000A8
:103E90000DB407FEFDCF8EB584E28EBD00000DB4DB
:103EA00007FEFDCF8EB582E08EBD00000DB407FE8B
:103EB000FDCF8EB5289A289880E98EBD00000DB4FC
:103EC00007FEFDCF8EB584E28EBD00000DB407FE67
:103ED000FDCF8EB580E38EBD00000DB407FEFDCF93
:103EE0008EB580EE8EBD00000DB407FEFDCF8EB501
:103EF00081E08EBD00000DB407FEFDCF8EB5289A7F
:103F0000289880E98EBD00000DB407FEFDCF8EB568
:103F100084E28EBD00000DB407FEFDCF8EB584E4B3
:103F20008EBD00000DB407FEFDCF8EB580E18EBDC5
:103F300000000DB407FEFDCF8EB581E08EBD000000
:103F40000DB407FEFDCF8EB5289A289880E98EBD66
:103F500000000DB407FEFDCF8EB584E28EBD0000DB
:103F60000DB407FEFDCF8EB588E68EBD00000DB402
:103F700007FEFDCF8EB581E08EBD00000DB407FEBB
:103F8000FDCF8EB51EBC00000DB407FEFDCF8EB573
:103F9000289A289880E98EBD00000DB407FEFDCF59
:103FA0008EB584E28EBD00000DB407FEFDCF8EB548
:103FB00080E68EBD00000DB407FEFDCF8EB51EBCA1
:103FC00000000DB407FEFDCF8EB51EBC00000DB481
:103FD00007FEFDCF8EB5289A289880E98EBD000097
:103FE0000DB407FEFDCF8EB584E28EBD00000DB48A
:103FF00007FEFDCF8EB58CE68EBD00000DB407FE2A
:10400000FDCF8EB585E08EBD00000DB407FEFDCF5F
:104010008EB51EBC00000DB407FEFDCF8EB5289AEC
:10402000289888E48EBD00000DB407FEFDCF8EB544
:104030001EBC00000DB407FEFDCF8EB51EBC0000F7
:104040000DB407FEFDCF8EB51EBC00000DB407FEFB
:10405000FDCF8EB51EBC00000DB407FEFDCF8EB5A2
:10406000289A64E170E080E090E00E948A1128982C
:1040700080E98EBD00000DB407FEFDCF8EB584E251
:104080008EBD00000DB407FEFDCF8EB584E58EBD5C
:1040900000000DB407FEFDCF8EB581E08EBD00009F
:1040A0000DB407FEFDCF8EB5289A40E150E060E0E8
:1040B00070E089EB91E00E94910D28988CE08EBD14
:1040C00000000DB407FEFDCF8EB51EBC00000DB480
:1040D00007FEFDCF8EB51EBC00000DB407FEFDCF60
:1040E0008EB51EBC00000DB407FEFDCF8EB51EBC04
:1040F00000000DB407FEFDCF3EB51EBC00000DB4A0
:1041000007FEFDCF2EB51EBC00000DB407FEFDCF8F
:104110009EB51EBC00000DB407FEFDCF8EB5289ADB
:10412000C32ED22EE92EF82E38E0C31631E0D30686
:10413000E306F104A1F06EE271E089EB91E00E94E8
:104140004E0D20E130E0B701A60189EB91E00E941D
:10415000D70E65E471E089EB91E00E945E0D60E0AE
:104160007FEF8FEF9FEF0E94591867E070E080E0CB
:1041700096E20E94591886E1E9E6F1E08E010F5FB0
:104180001F4FD80101900D928A95E1F76FEF7FEFF5
:104190008FEF94E00E9459184CE05FEF6FEF7FEFD4
:1041A0008CE493E076D840EF50E062E270E08CE47B
:1041B00093E06FD84DE150E060E076E08CE493E06E
:1041C00068D8F80101900020E9F7E01BF10B9F018E
:1041D00040E050E080914D03882309F432C2B801D9
:1041E0008CE493E033D960E070E08FEF94E00E94BC
:1041F000591881E591E09F938F9386E08F931F92EA
:104200008DE18F931F9288E88F931F9280EF8F9399
:104210008CE493E09F938F9396DA60E070E0CB019B
:104220000E94591861E07FEF8FEF9FEF0E945918AD
:104230008CE493E00E946E1581E090E000905403BE
:1042400002C0880F991F0A94E2F7289820E12EBD3A
:1042500000000FB6F894DEBF0FBECDBF0DB407FE51
:10426000FDCF2EB524E22EBD00000DB407FEFDCF1C
:104270002EB520E92EBD00000DB407FEFDCF2EB5F2
:104280001EBC00000DB407FEFDCF2EB51EBC000005
:104290000DB407FEFDCF9EB5289A982B80E928988B
:1042A0008EBD00000DB407FEFDCF2EB524E22EBD5D
:1042B00000000DB407FEFDCF2EB58EBD00000DB47D
:1042C00007FEFDCF8EB59EBD00000DB407FEFDCFED
:1042D0008EB5289A42E25FEF6FEF7FEF8CE493E0B8
:1042E0000E94491940E050E0BA018CE493E00E943A
:1042F000491980914D03882309F428C22FED3AE033
:1043000040E050E062ED70E08CE493E00E94D6164D
:104310008CE493E00E946E1560E07FEF8FEF9FEFDB
:104320000E94591867E070E080E096E20E945918F8
:1043300060E070E080E095E00E94591860E070E075
:1043400080E091E00E94591841E358EE63E077E085
:104350008CE493E00E94491941E354EF61E178E075
:104360008CE493E00E94491960E070E0CB010E9468
:10437000591861E07FEF8FEF9FEF0E9459188CE48E
:1043800093E00E946E158AEB94E19093FB02809378
:10439000FA0281E08093D8001092DE001092DF00D4
:1043A00090EA9093DB001092EC001092E2008CE017
:1043B0008093E30086E38093E4001092E50080910F
:1043C000D80082608093D8001092ED001092EF0028
:1043D0001092EE0080E18093ED001092EF001092B9
:1043E000EE0080E28093ED001092EF001092EE005C
:1043F00080E38093ED001092EF001092EE0080E4D5
:104400008093ED001092EF001092EE0080E5809313
:10441000ED001092EF001092EE0080E68093ED0028
:104420001092EF001092EE0080E78093ED00109262
:10443000EF001092EE0080E88093ED001092EF0004
:104440001092EE0080E98093ED001092EF00109240
:10445000EE009093ED001092EF001092EE0080EBD2
:104460008093ED001092EF001092EE0080EC8093AC
:10447000ED001092EF001092EE0080ED8093ED00C1
:104480001092EF001092EE0080EE8093ED001092FB
:10449000EF001092EE0080EF8093ED001092EF009D
:1044A0001092EE00789449E050E069EC70E0CE01A3
:1044B0004796B8D549E050E060EC70E0C801B2D54D
:1044C0001092ED001092EE008091DE0081608093EA
:1044D000DE002D8D8F89988DA98DBA8D222309F448
:1044E00022C1AC01BD0115E17695679557954795B9
:1044F0001A95D1F74093F300AC01BD010DE076951C
:104500006795579547950A95D1F74093F200AC010E
:10451000BD0195E076956795579547959A95D1F7A2
:104520004093F100880F880F880F8093F0008091EE
:10453000F0009C8D992309F482C094E0892B80932C
:10454000F0002D8D89819A81AB81BC81222309F4F1
:10455000D7C0AC01BD01E5E17695679557954795C4
:10456000EA95D1F74093F700AC01BD01FDE07695E7
:10457000679557954795FA95D1F74093F600AC01AA
:10458000BD01A5E07695679557954795AA95D1F712
:104590004093F500880F880F880F8093F400909166
:1045A000F4008E81882309F448C024E081E03F8133
:1045B000311101C080E0820F892B8093F4008D8D32
:1045C00081119CC090E88B8D8F70892B8093EF00B8
:1045D0001092180310923D0387E08093B00081E0B1
:1045E000809370009CE09093100310920E039FEF55
:1045F00090930F031092FF028093040382E0809354
:10460000090387B1807F87B988B18F6088B984B189
:10461000806E84B985B18F7185B910BA6F960FB667
:10462000F894DEBF0FBECDBFDF91CF911F910F91E8
:10463000FF90EF90DF90CF90089520E0B7CF90E00B
:104640007DCF8091570390915803A0E0B0E090583F
:10465000AF4EBF4F28986A2F60686EBD00000DB442
:1046600007FEFDCF6EB59EBD00000DB407FEFDCF69
:104670006EB58EBD00000DB407FEFDCF8EB581E096
:1046800080934D03B8018CE493E00E94261A289A87
:104690008091570390915803289820E92EBD00007F
:1046A0000DB407FEFDCF2EB524E22EBD00000DB4E3
:1046B00007FEFDCF2EB528EE2EBD00000DB407FE7F
:1046C000FDCF2EB58EBD00000DB407FEFDCF2EB57B
:1046D0009EBD00000DB407FEFDCF8EB51EBC0000D0
:1046E0000DB407FEFDCF8EB51EBC00000DB407FE55
:1046F000FDCF8EB5289A10924D0375CD90E963CF0A
:104700009C013695279536952795369527952093C4
:10471000F7008295880F807E8093F6001092F50056
:104720001092F4003CCF9C0136952795369527953D
:10473000369527952093F3008295880F807E80938D
:10474000F2001092F1001092F000F1CE4091570368
:104750005091580360E070E050586F4E7F4F28989A
:10476000862F80688EBD00000DB407FEFDCF8EB58C
:104770005EBD00000DB407FEFDCF8EB54EBD00003E
:104780000DB407FEFDCF8EB581E080934D032FED74
:104790003AE040E050E062ED70E08CE493E00E948B
:1047A000D616289A8091570390915803289820E9AB
:1047B0002EBD00000DB407FEFDCF2EB524E22EBDA8
:1047C00000000DB407FEFDCF2EB528EE2EBD000073
:1047D0000DB407FEFDCF2EB58EBD00000DB407FE53
:1047E000FDCF2EB59EBD00000DB407FEFDCF8EB5EA
:1047F0001EBC00000DB407FEFDCF8EB51EBC000030
:104800000DB407FEFDCF8EB5289A10924D0380CDD2
:10481000CF93DF93CDB7DEB7A6970FB6F894DEBF80
:104820000FBECDBF0E94C411F0D9CE0101966C011C
:104830000CE413E05FE7252E51E0352E80910E0346
:10484000882349F18091F8029091F902892B09F0AF
:10485000FFCF80910F03992787FD9095FC01EE0F04
:10486000FF1FEE0FFF1FE80FF91FE150FD4FA5EAF4
:10487000B3E1B283A18314821382F093F902E0932F
:10488000F80280818F70806480937C0080917A0030
:10489000806480937A0080913B038C3008F007C1DC
:1048A0008091180380933D038091160380933E030B
:1048B000809111038093430380911203909113031D
:1048C000A0911403B091150389A39AA3ABA3BCA331
:1048D0008CA189838BA18A838AA18B8389A18C83F4
:1048E00089819A81AB81BC8180933F03909340037F
:1048F000A0934103B093420380914403823009F4B2
:104900001FC180914403811101C02F9880914503FC
:10491000823009F41BC180914503811101C02E989A
:1049200080914603823009F417C1809146038111BA
:1049300001C02D9880914A03811152C080913D039E
:1049400060E07FEF8FEF9FEF0E94591867E070E003
:1049500080E096E20E9459186FEF7FEF8FEF94E0AE
:104960000E94591880913103909132039EA38DA328
:104970008EA189838DA18A8369817A8180E090E00C
:10498000EBD120E030E048EC52E47ED19F938F934E
:104990007F936F93A5E8B1E0BF93AF931F921F92EF
:1049A0008CE18F931F9289E18F931F928F931F93B6
:1049B0000F930E94A31B60E070E0CB010E94591886
:1049C00061E07FEF8FEF9FEF0E9459188CE493E036
:1049D0000E946E150FB6F894DEBF0FBECDBF2ECF6E
:1049E000E0914B03F0E0E450FD4FE08080914B03F9
:1049F000F12C813009F4CAC008F4B0C0823059F4F7
:104A0000F701EE0FFF1FEF54F44F6591749140E2F0
:104A100050E0C60110D344244A94542C642C94E0F2
:104A2000792E812C912CA12C22E0B22E60E07FEF18
:104A30008FEF9FEF0E94591867E070E080E096E2E8
:104A40000E945918C501B4010E94591867E070E02E
:104A500080E096E20E945918C301B2010E945918E1
:104A6000FF92EF923F922F9286E08F931F925FE129
:104A7000F52EFF921F9288E88F931F9280EF8F93FD
:104A80001F930F930E94A31BDF92CF92A2E8B1E085
:104A9000BF93AF931F921F92FF921F9289E18F9352
:104AA0001F928F931F930F930E94A31B84CF10928A
:104AB0003B03F60188E011928A95E9F786B180956B
:104AC00089838091FD028A8390E59093ED00A0E8B0
:104AD000A093F3001092F2001092F100A093F00066
:104AE000B8E0B093EF008091F0008093F000109256
:104AF000EE0089818093FA008A818093FA008B818D
:104B00008093FA008C818093FA008D818093FA0063
:104B10008E818093FA008F818093FA00888580933C
:104B2000FA008091EF0080658093EF0080910F0381
:104B300087FFB6CE10920F03E1E0E0930E03B0CEF4
:104B40002F9A80914503823009F0E5CE2E9A80910C
:104B50004603823009F0E9CE2D9AECCEF701EE0F34
:104B6000FF1FE45FF34F6591749140E250E0C6018E
:104B700062D244244A94512C612CB4E07B2E812CC7
:104B800099249A94A92C82E0B82E50CFF701EE0F09
:104B9000FF1FEC58F34F6591749140E250E0C6015D
:104BA0004AD244244A94542C612C74E0772E812CF0
:104BB000912CAA24AA94E2E0BE2E38CFAA1BBB1BDC
:104BC00051E107C0AA1FBB1FA617B70710F0A61B0D
:104BD000B70B881F991F5A95A9F780959095BC012E
:104BE000CD01089597FB072E16F4009406D077FDAB
:104BF00008D0E4DF07FC05D03EF4909581959F4FE7
:104C00000895709561957F4F0895A1E21A2EAA1B11
:104C1000BB1BFD010DC0AA1FBB1FEE1FFF1FA2176C
:104C2000B307E407F50720F0A21BB30BE40BF50B69
:104C3000661F771F881F991F1A9469F760957095F2
:104C4000809590959B01AC01BD01CF0108950DD0D9
:104C5000A59F900DB49F900DA49F800D911D1124D0
:104C600008950790F691E02D0994A29FB001B39F9B
:104C7000C001A39F700D811D1124911DB29F700D65
:104C8000811D1124911D08950CD0BAC0B2D040F0FE
:104C9000A9D030F021F45F3F19F09BC05111E4C05E
:104CA0009EC0BFD098F39923C9F35523B1F3951B48
:104CB000550BBB27AA2762177307840738F09F5F3D
:104CC0005F4F220F331F441FAA1FA9F333D00E2EAC
:104CD0003AF0E0E830D091505040E695001CCAF719
:104CE00029D0FE2F27D0660F771F881FBB1F2617DE
:104CF00037074807AB07B0E809F0BB0B802DBF01B1
:104D0000FF2793585F4F2AF09E3F510568F061C01E
:104D1000ABC05F3FECF3983EDCF3869577956795E3
:104D2000B795F7959F5FC9F7880F911D9695879561
:104D300097F90895E1E0660F771F881FBB1F621780
:104D400073078407BA0720F0621B730B840BBA0B3E
:104D5000EE1F88F7E0950895E89409C097FB3EF4AC
:104D600090958095709561957F4F8F4F9F4F9923B8
:104D7000A9F0F92F96E9BB279395F6958795779536
:104D80006795B795F111F8CFFAF4BB0F11F460FFF6
:104D90001BC06F5F7F4F8F4F9F4F16C0882311F04E
:104DA00096E911C0772321F09EE8872F762F05C062
:104DB000662371F096E8862F70E060E02AF09A95FD
:104DC000660F771F881FDAF7880F9695879597F9F2
:104DD000089597F99F6780E870E060E008959FEF7D
:104DE00080EC089500240A94161617061806090682
:104DF000089500240A941216130614060506089551
:104E0000092E0394000C11F4882352F0BB0F40F4D8
:104E1000BF2B11F460FF04C06F5F7F4F8F4F9F4F18
:104E2000089557FD9058440F551F59F05F3F71F09A
:104E30004795880F97FB991F61F09F3F79F0879501
:104E40000895121613061406551FF2CF4695F1DF8A
:104E500008C0161617061806991FF1CF869571051A
:104E6000610508940895E894BB2766277727CB014E
:104E700097F90895283008F027E03327DA01990FD1
:104E8000311D87FD916000966105710539F432602E
:104E90002E5F3D9330E32A95E1F708959F3F30F070
:104EA00080387105610509F03C5F3C5F3D939130AE
:104EB00008F08068911DDF93CF931F930F93FF92AB
:104EC000EF92192F987F9695E92F96959695E90F71
:104ED000FF27E25DF24F99273327EE24FF24A70135
:104EE000E70105900894079428F4360FE71EF81E92
:104EF000491F511D660F771F881F991F0694A1F740
:104F00000590079428F4E70EF81E491F561FC11D8F
:104F1000770F881F991F661F0694A1F705900794C5
:104F200028F4F80E491F561FC71FD11D880F991F5F
:104F3000661F771F0694A1F70590079420F4490F88
:104F4000561FC71FD81F990F661F771F881F06940B
:104F5000A9F784911095177041F0D695C79557958C
:104F60004795F794E7941A95C1F7E4EDFCE068944F
:104F70001590159135916591959105907FE2739506
:104F8000E118F10A430B560BC90BD009C0F7E10C2D
:104F9000F11E431F561FC91FD01D7EF4703311F43C
:104FA0008A95E6CFE894015030F0080F0AF4002704
:104FB000021708F4202F2395022F7A3328F079E383
:104FC0007D932A95E9F710C07D932A9589F606947A
:104FD00097956795379517951794E118F10A430B44
:104FE000560BC90BD00998F023957E9173957A33AF
:104FF00008F070E37C932013B8F77E9170617D9385
:1050000030F0839571E37D9370E32A95E1F71124E5
:10501000EF90FF900F911F91CF91DF91992787FD1E
:1050200090950895FB01DC0102C005900D9241505E
:105030005040D8F70895FB01DC014150504048F042
:1050400005900D920020C9F701C01D9241505040BB
:10505000E0F70895FC010590615070400110D8F709
:10506000809590958E0F9F1F0895FC0161507040B0
:1050700001900110D8F7809590958E0F9F1F08958D
:105080000F931F93CF93DF93182F092FEB018B8181
:1050900081FD03C08FEF9FEF20C082FF10C04E81C3
:1050A0005F812C813D81421753077CF4E881F981AF
:1050B0009F012F5F3F4F39832883108306C0E88507
:1050C000F985812F0995892B29F72E813F812F5F43
:1050D0003F4F3F832E83812F902FDF91CF911F91E0
:1050E0000F9108950F931F93CF93DF93CDB7DEB742
:1050F0002E970FB6F894DEBF0FBECDBF8C01CA014C
:1051000046E04C831A83098377FF02C060E070E8B1
:10511000615071097E836D83A901BC01CE010196A6
:105120000E941A074D815E8157FD0AC02F81388584
:10513000421753070CF49A01F801E20FF31F108293
:105140002E960FB6F894DEBF0FBECDBFDF91CF9184
:105150001F910F910895FA01AA27283051F12031AB
:1051600081F1E8946F936E7F6E5F7F4F8F4F9F4FFB
:10517000AF4FB1E03ED0B4E03CD0670F781F891F3D
:105180009A1FA11D680F791F8A1F911DA11D6A0F0B
:10519000711D811D911DA11D20D009F468943F91BE
:1051A0002AE0269F11243019305D3193DEF6CF01BD
:1051B0000895462F4770405D4193B3E00FD0C9F783
:1051C000F6CF462F4F70405D4A3318F0495D31FDF0
:1051D0004052419302D0A9F7EACFB4E0A695979543
:1051E000879577956795BA95C9F700976105710519
:1051F00008959B01AC010A2E069457954795379563
:105200002795BA95C9F7620F731F841F951FA01DBC
:065210000895F894FFCFA1
:1052160000005B0320000100000000000002070000
:1052260000260000000000000000120B210DC10A3C
:10523600D90ABE0A040B25642C2025640A0045728F
:10524600726F7220696E20636869702069642072CB
:105256006561642000496E6974204661696C656405
:105266000057414954494E4720464F522043414E2C
:1052760020444154412E2E2E00466F726D756C618E
:1052860020456C65637472696320323031350025C0
:1052960064002573004261747465727920566F6CE0
:0C52A600746167653A20252E3266000016
:00000001FF
